:020000040800F2
:10000000100600204501000875330008892A000801
:1000100071330008C5010008AD340008000000007D
:100020000000000000000000000000007D33000818
:10003000F90100080000000079330008813300084E
:100040005F0100085F0100085F0100085F01000810
:100050005F0100085F0100085F0100085F01000800
:100060005F0100085F0100085F0100085F010008F0
:100070005F0100085F010008C9010008D501000800
:10008000E1010008ED0100085F0100085F010008C0
:100090005F0100085F0100085F0100085F010008C0
:1000A0005F0100085F0100085F0100085F010008B0
:1000B000893300085F0100085F010008992A0008E1
:1000C0008D2A00085F0100085F0100085F01000839
:1000D0005F010008A13400085F0100085F0100080B
:1000E0005F0100085F0100085F0100085F01000870
:1000F0005F0100085F0100085F0100085F01000860
:100100005F0100085F0100085F0100085F0100084F
:100110005F0100085F0100085F0100085F0100083F
:100120005F0100085F0100085F0100085F0100082F
:10013000DFF80CD000F02EF800480047D13400085A
:10014000100600200648804706480047FEE7FEE705
:10015000FEE7FEE7FEE7FEE7FEE7FEE7FEE7FEE777
:10016000853300083101000830B50B4601460020F8
:100170002022012409E021FA02F59D4205D303FA69
:1001800002F5491B04FA02F52844151EA2F10102EA
:10019000F1DC30BD1CB509480090094801900546C6
:1001A000009C06E0E06840F0010394E807009847EF
:1001B0001034AC42F6D3FFF7BFFF00008C380008C4
:1001C000AC380008FEE7000040F2E000C2F2000098
:1001D00000F0DAB840F29C00C2F2000000F0D4B89F
:1001E00040F25800C2F2000000F0CEB840F2140015
:1001F000C2F2000000F0C8B870470000EFF31080B2
:1002000072B600BFFEE70000014690F82100022808
:1002100016D10868D1E90FC3026822F00E0202600D
:10022000026822F001020260012000FA03F2CCF819
:10023000042081F821000020002281F8202070474E
:10024000042088630120002281F8202070470000EC
:1002500090F82110022927D1026840F2040C13689B
:10026000C4F2020C23F00E03136013680CF17C013E
:100270008A4223F0010111601AD940F20841C4F208
:1002800002018A4248D040F21C41C4F202018A4273
:1002900046D040F23041C4F202018A4244D14FF4C8
:1002A0008073CCF800345CE0042181630120704746
:1002B0004321C4F202018A420EDD6B21C4F2020125
:1002C0008A421BDC4421C4F202018A423CD05821FC
:1002D000C4F202018A4233E00821C4F202018A42D8
:1002E00036D01C21C4F202018A4237D03021C4F238
:1002F00002018A4224D14FF4807230E06C21C4F2B2
:1003000002018A4226D08021C4F202018A4217D11A
:100310004FF0807223E000BF0123CCF8003420E0CE
:100320001023CCF800341CE00CF588614FF48033C6
:100330008A4208BF4FF48053CCF8003411E000BF6C
:100340004FF480320BE000BF4FF4805207E000BF53
:10035000012204E04FF4801201E000BF1022CCF82B
:100360000020012180F82110426B002180F820102C
:1003700022B180B590470021BDE880400846704713
:1003800090F821007047000010B5D0E90FE3D0F8D5
:1003900000C0DEF80020DCF80010DA4054072DD54C
:1003A00011F004042AD0DCF80010890605D4DCF82A
:1003B000001021F00401CCF800100422C4F2020263
:1003C00002F17C018C454BD940F20841C4F2020194
:1003D0008C4500F0AF8040F21C41C4F202018C4514
:1003E00000F0AC8040F23041C4F202018C4540F094
:1003F000A9804FF48061C2F80014F3E0940745D55A
:1004000011F0020442D0DCF80010890608D4DCF8B0
:10041000001021F00A01CCF80010012180F8211011
:100420000422C4F2020202F17C018C454CD940F254
:100430000841C4F202018C4500F0B48040F21C4136
:10044000C4F202018C4500F0AF8040F23041C4F2AA
:1004500002018C4540F0AA804FF40071AEE000BF6D
:100460004321C4F202018C4544DD6B21C4F2020138
:100470008C4551DC4421C4F202018C4500F0A2807D
:100480005821C4F202018C4568E000BF120740F118
:10049000C18011F0080108BF10BDDCF8001021F088
:1004A0000E01CCF80010012101FA03F2CEF804206D
:1004B000816380F82110016B0022002980F8202040
:1004C00040F09280A6E000BF4321C4F202018C45B7
:1004D00048DD6B21C4F202018C4555DC4421C4F295
:1004E00002018C4500F084805821C4F202018C4541
:1004F00072E000BF0821C4F202018C4566D01C21C5
:10050000C4F202018C456BD03021C4F202018C454B
:1005100024D14FF4806164E06C21C4F202018C4567
:1005200056D08021C4F202018C4517D14FF0806172
:1005300057E000BF0421C2F8001453E04021C2F884
:1005400000144FE002F588634FF480219C4508BFFA
:100550004FF48041C2F8001444E000BF4FF4802102
:100560003FE000BF0821C4F202018C4544D01C21A9
:10057000C4F202018C4545D03021C4F202018C4501
:100580002AD14FF400713EE06C21C4F202018C4587
:1005900034D08021C4F202018C451DD14FF000718E
:1005A00031E000BF022109E0202107E002F5886365
:1005B0004FF400319C4508BF4FF40051C2F80014BD
:1005C00022E000BF4FF480410BE000BF042108E0AF
:1005D0004FF4800105E000BF4FF4003113E000BF8D
:1005E00040211160C16AA9B1BDE81040084700BFB1
:1005F0004FF4005107E000BF022104E04FF4001166
:1006000001E000BF20211160816A0022002980F8EA
:100610002020E9D110BD0000014600284FF0010064
:1006200008BF70472DE9F04740F2000CC4F2020CFD
:100630000A684FF6F8330CF5816ECBF6FD73724500
:1006400038BF03F5806303EB020E4CF6CD43CCF6C6
:10065000CC43AEFB033E6FF003060CF5806506EA63
:100660009E06D1E901A9D1F80C803CBF0025C4F257
:100670000205C1E90F56022681F82160166843F68B
:10068000F075AE4346EA0A06D1E9045746EA090680
:1006900046EA0806D1E906432E43374327433B4346
:1006A000136000228A6381F8210081F82020002055
:1006B000BDE8F04770470000B0B5044600F016F9F9
:1006C000054640F20400C2F200000078611C18BF29
:1006D000044400BF00F00AF9401BA042FAD3B0BDA9
:1006E0002DE9F04F82B00E68002E00F0EF80A0F1EF
:1006F0008042A2F58432870547EA922241F60047FC
:1007000040F2004EC4F201070625C4F2010EB842C1
:1007100008BF052500244FF001080F234FF0000A01
:100720004FF0000B052A38BF1546009509E000BFC1
:100730000E680AF1010A36FA0AF204F1040400F024
:10074000C58008FA0AFC16EA0C09F1D04E684FF68B
:10075000FF72C1F21002964212DC122E56D8DFE868
:1007600006F0350B45495555555555555555555573
:100770005555554D510000BFD1F80CB046E000BFB3
:100780004FF6FF72C1F2210296420FDC0022C1F245
:10079000110296421AD00022C1F21202964215D0DE
:1007A0000022C1F22102964210D02FE00022C1F2B5
:1007B000220296420AD00022C1F23102964205D0AE
:1007C0000022C1F23202964220D100BF8A684AB1AB
:1007D000012A14BFC0F814C0C0F810C04FF0080BB5
:1007E00014E000BF4FF0040B10E000BFCA6802F134
:1007F000080B0BE04FF0000B08E000BFCA6802F1E5
:10080000040B03E0CA6802F10C0B00BF2246064647
:10081000B9F5807F24BF203A0436376803FA02F521
:10082000AF430BFA02F23A433260CA79D2067FF53F
:100830007FAF41F21807C4F202073A684FF6084347
:1008400042F001023A603A68CFF6FF7302F001020B
:100850000192019A2AF0030272440F25D75804F03E
:100860000C06B540AF43009D05FA06F63743D75056
:100870004E6840F20C45F202DEF8082054BF22EA2E
:10088000090242EA0902C4F20105CEF808202A68EA
:10089000B70254BF22EA090242EA09022A60DEF8DE
:1008A0000420B70354BF22EA090242EA0902CEF843
:1008B00004200F23DEF80020F70354BF22EA0902C8
:1008C00042EA0902CEF8002032E700BF02B0BDE8DC
:1008D000F08F00008068084018BF012070470000BA
:1008E000002A08BF090401617047000040F2082097
:1008F000C2F20000006870477047000070470000B7
:10090000F0B581B00446006800254769426894F854
:100910003E1002F48076FA0508D53EB16FF480727D
:1009200042610268012542F400420260BA0505D521
:10093000002E1EBF02356FF4007242617A0516D593
:10094000AEB1628D94F83D30D4F830C0202908BF94
:10095000002A23D06FF48062402905F1040542612A
:1009600001D0102903D1016841F4007101603805FC
:1009700006D52EB1206808356FF40061416100E0B2
:1009800055B1206C40EA05012046216401B0BDE864
:10099000F04002F019B900BF01B0F0BD03F0F7015B
:1009A000212909D0282B08BFBCF1210F04D06FF4F6
:1009B000806141610435DAE794F83D10E26AB2F1F2
:1009C000080318BF0123203A18BF0122134208BFB1
:1009D000282921D0212939D10021CFF6FF71E162E8
:1009E00021212163202184F83D10002184F83E104C
:1009F000426822F4E06242606FF480624261026801
:100A000022F4806202604269120648BF01612046FA
:100A100000F09EFCABE700BF0021CFF6FF71E16262
:100A2000416821F4E06141606FF4806141610168D7
:100A300021F48061016000202021206384F83D10B2
:100A400084F83E00204600F0D9FB90E76FF4806107
:100A500041618CE7F0B581B0076804467868E26AC6
:100A600094F83E3094F83DE0402B01D0102B1BD180
:100A7000BD697E69F10745D1B2F12A4F00F060826D
:100A8000B2F52A0F00F05C82310700F4007240F1E9
:100A90000981002A00F00681606B616C0028C9B2F0
:100AA000396140F0EE80EEE0216C00F40073002923
:100AB0000CBFBD6900257E69B1073DD5E3B3206C4D
:100AC000002818BFBD6994F83D0000F028002828D0
:100AD00074D17868012120F48060786005F004000A
:100AE00081EA900128064FF0180058BF0C20225AC6
:100AF0000023204684F83C3001B0BDE8F040FFF709
:100B0000FDBE00BF810541D44FF0010C79686A0732
:100B100042D4090500F1148206F04401402940F056
:100B2000318110F4806000F02D81204601B0BDE8D5
:100B3000F04002F083B900BFF1064BD5002B49D03D
:100B400094F83D50786820F4E060786000200090D0
:100B500078690090386840F0010038600098386883
:100B600020F4806038607868000540F1508105F01D
:100B7000F7002646222840F0298156F8380F0168F0
:100B8000496826F80E1C36F80E1C27E1E06AB0F51D
:100B90002A0F51D1012054E0090500F1D18106F05E
:100BA0008401802940F0FE8010F4806000F0FA801B
:100BB000204601B0BDE8F04002F020BA00200090CD
:100BC00079690091B9690091009984F83C0001B0FD
:100BD000F0BD00BF0EF0F701212940F0958006F02E
:100BE0008401802940F0648110F4806000F060810D
:100BF00094F83D00618D002900F0A281616A11F82E
:100C0000012B3A616162618D01396185618D002935
:100C100008BF292840F094817868282120F480605A
:100C2000786021202063204684F83D1001B0BDE8A3
:100C3000F04000F08DBB00BFE06AB0F12A4F01D157
:100C40000820E06294F83E0040280BD1206D616CD2
:100C5000002801F0FE0018BF40F00100386101B02B
:100C6000F0BD00BF2069B0F5804F7BD194F83D0006
:100C7000616C212801F0FE0118BF01313961606B00
:100C800008B1806A38B9A06B002800F05981806AE9
:100C9000002800F05581786840F40060786001B069
:100CA000F0BD00BF4FF0010CB1078CEA522C7FF56C
:100CB0002DAF002A3FF42AAF94F83E30E06A226B51
:100CC00094F83D10222940F0FF80216D002908BFD3
:100CD000402B00F0F980216D002940F0338121691B
:100CE000B1F5404F40F02E810020009078690090CF
:100CF000B86900900098386840F480703860206DC2
:100D00000130206501B0F0BD06F04401402940F0FB
:100D1000E58010F4806000F0E18094F83D00618D82
:100D2000002900F00D813969626A1170616A013130
:100D30006162618D01396185618D002908BF2A28B2
:100D400040F0FE802068416821F4806141602220EB
:100D500028212063204684F83D1001B0BDE8F04012
:100D600000F0F4BA206D002800F0C880206D012842
:100D700040F0E680606C062101EAD010F130386165
:100D800001B0F0BD06F00400012181EA900050EAB4
:100D90000C0040F0D580204601B0BDE8F04001F0E5
:100DA000D9BF00BF06F00400012181EA900050EA9B
:100DB0000C0040F0C580BEF1210F40F0B980204604
:100DC00001B0BDE8F04002F0D7B800BF56F8340FCC
:100DD0000168496826F80A1C36F80A1C19B1216C0A
:100DE00041F004012164796821F400617960FFF722
:100DF000C7FA01280BD0306842F6A521C0F60001E1
:100E00004163FFF725FA10B13068416B8847608D68
:100E100060B120684169490730D4416949063AD434
:100E2000608D18B1206C40F004002064206C28B163
:100E3000204601B0BDE8F04001F0C6BE2A2D07D122
:100E400000202063282084F83D00204600F07EFA30
:100E500094F83D00282859D10020CFF6FF70E062B9
:100E600000212020216384F83D00204684F83E10B4
:100E700001B0BDE8F04000F0C1B900BF0069616A8F
:100E80000870616A206801316162618D0139618594
:100E900041694906C4D50069616A0870606A013019
:100EA0006062608D01386085608D0028BAD1BDE731
:100EB000700745D5002B43D0608D002840D0606A74
:100EC00010F8011B396113E0002000907869009050
:100ED000B8690090009801B0F0BD00BF70072FD531
:100EE00073B3608D60B33869616A0870606A0130FD
:100EF0006062608D0138608522E000BF606C062171
:100F000001EAD010F030386101B0F0BD206B22282A
:100F100018BF222D14D100212020216384F83D0028
:100F2000204684F83E1001B0BDE8F04000F00EBA53
:100F3000402B05D1204601B0BDE8F04002F0B8B822
:100F400001B0F0BD618D51B1618D012916D120280C
:100F500018BF082842D1386820F48060386000202B
:100F6000009078690090B86900900098386840F463
:100F7000007038600020206501B0F0BD618D02294D
:100F800014D110284ED8012114228140C0F2010250
:100F9000114247D0396841F48061396000210091E5
:100FA00079690091B969009100994AE0396841F482
:100FB00080613960796809055DD5421E1F2A57D8BE
:100FC0000121914048F28102C8F2000211424FD043
:100FD000786840F4805078604DE000BF10F5803FA5
:100FE0000CD1386820F48060386078680005B6D588
:100FF000386820F4806038603DE000BF122A01D1DB
:101000000128A8D11028F3D8012101FA00F01421F9
:10101000C0F201010842EBD0386840F480603860CB
:1010200029E000BF396841F4006139600021009176
:1010300079690091B96900910099396821F480615A
:101040003960796809051DD5421E1F2A1ED8012165
:10105000914048F28102C8F20002114216D078682D
:1010600040F4805078600020206501B0F0BD00BFE2
:1010700010F5803FACD00020009078690090B869EE
:10108000009000980020206501B0F0BD10F5803F71
:10109000E5D0F7E770470000002804BF0120704743
:1010A000F0B581B0044690F83D0028B9002084F8DE
:1010B0003C00204600F0D2F8242084F83D0020684F
:1010C000016821F001010160016841F40041016003
:1010D000016821F40041016000F0D4FA636848F22D
:1010E000A16CC0F2010C40F60011C0F23D01634555
:1010F0003CBF48F28041C0F21E01884202D201206A
:1011000001B0F0BD4DF68361C4F21B31A0FB0112AA
:101110002168970CD1F804E04FF496762EF03F0545
:1011200045EA92454D60774348F638160D6AC0F29D
:101130004106A7FB067625F03F07634538BF960CAE
:10114000721C3A430A62CA6948F2A0664CF6FF77FD
:10115000C0F20106B34222EA07020BD801385B0055
:10116000B0FBF3F001306FF31F30042898BF042068
:101170001BE000BFA768013857B119277B43B0FBBC
:10118000F3F001306FF31F3070B100F5804007E0DD
:1011900003EB4303B0FBF3F001306FF31F3018B1E2
:1011A00000F5004001E000BF01201043C86108685D
:1011B000D4E9072320F0C000104318430860886872
:1011C00048F2FF3204F10C0790438CCF18431043D0
:1011D000A6698860C86820F0FF0038433043C860C3
:1011E000086840F00100086000202021206484F895
:1011F0003D10206384F83E0001B0F0BD7047000050
:1012000040F21000C2F20000017801A002F034BAEE
:101210002564000010B5044643F66600C0F60000E1
:1012200002F02AFA40F22410C2F2000084420FD1E8
:1012300040F21104C2F200042078022818BF10BD49
:1012400043F66600C0F6000002F016FA0320207094
:1012500010BD000070470000704700002DE9F0410C
:1012600086B0044645F200402168C4F20000002721
:101270008142049702D006B0BDE8F08141F2180522
:10128000C4F20205296840F26C0841F008012960A7
:10129000296800F5384001F0080101910199C02149
:1012A0000291122103910321059102A9C4F20208BF
:1012B000FFF716FA6868802640F4001068606868D6
:1012C00040F2140500F400100190019808F1140098
:1012D000C2F20005C5E900072846C5E90276C5E95E
:1012E0000477C5E90677FFF797F9002818BFFEF7DE
:1012F00085FFA5636C6240F25805C2F2000510201C
:101300000021C5E900802846C5E90216C5E9041197
:10131000C5E90611FFF780F9002818BFFEF76EFF38
:101320001F200021002265636C6200F08DF81F20F1
:1013300000F078F820200021002200F085F820201D
:1013400000F070F806B0BDE8F081000070470000C2
:101350007047000040F2040040F20821C2F2000091
:10136000C2F2000100780A6810440860704700006B
:1013700080B542F20000C4F20200016841F01001A1
:101380000160032000F08CF80F2000F005F800F059
:1013900027F8002080BD000070B540F20406C2F2BC
:1013A000000640F20C013278C2F200014FF47A7369
:1013B0000968B3FBF2F20446B1FBF2F1084600F013
:1013C00089FB0F2C4FF0010508D838B94FF0FF30DA
:1013D00021460022002500F037F87460284670BDD1
:1013E00082B041F21800C4F202000168022241F00A
:1013F00001010160016801F0010101910199416859
:1014000041F080514160406800F0805000900098A9
:101410000420C4F20100016862F31A61016002B0A5
:1014200070470000002848BF704700F01F010122EC
:1014300002FA01F11C2202EAD0004EF20012CEF2B2
:10144000000281507047000010B54EF60C5CCEF2E1
:10145000000CDCF80030C3F3022E8EF00704042CDD
:1014600028BF0424BEF103034FF0FF3E0EFA04F43C
:1014700038BF0023A14399400EFA03F39A43114366
:1014800000F00F0200F160430901043A03F56443E0
:101490006244002848BF02F10C03197010BD00001F
:1014A0004EF60C51CEF200010A684FF6FF031A40C7
:1014B00060F30A2242F0806040F0FD7008607047DF
:1014C000002804BF012070472DE9F04381B042F2AB
:1014D0000008C4F202080446D8F800000D4600F0E7
:1014E000070088420CD2D8F8000020F007002843FB
:1014F000C8F80000D8F8000000F00700A8426CD13E
:10150000206841F204098107C4F2020917D5410796
:1015100005D5D9F8001041F4E061C9F800100107C1
:1015200005D5D9F8001041F46051C9F80010D9F878
:101530000010A26821F0F0011143C9F80010C007A3
:1015400042D1D8F8000000F00700A8420CD9D8F822
:10155000000020F007002843C8F80000D8F8000079
:1015600000F00700A84238D12068410707D5D9F814
:101570000010E26821F4E0611143C9F8001000078F
:1015800008D5D9F80000216920F4605040EAC10074
:10159000C9F80000D9F8002002F00C00082841F238
:1015A0000020C0F27A0051D143F65603C2F38341C2
:1015B000C0F60003595CD2033CD440F60010C0F2E0
:1015C0003D00484342E000BF606802280AD001287D
:1015D0002AD159F8041C890308D4012001B0BDE8C0
:1015E000F08300BF59F8041C8901F6D5D9F8001022
:1015F00021F003010843C9F80000FFF777F9064618
:1016000041F28837D9F80000616800F00C00B0EBB7
:10161000810F96D0FFF76AF9801BB842F2D90320F8
:1016200001B0BDE8F08300BF59F8041C8907D4D588
:10163000DCE700BFD9F8002043F65403C2F3404270
:10164000C0F600039A5C4843B0FBF2F0D9F80010F2
:1016500043F63C02C1F30311C0F60002515C40F2B4
:101660000C0220FA01F140F20800C2F2000000680A
:10167000C2F200021160FFF78FFE002001B0BDE84A
:10168000F083000040F20C0041F20401C2F20000BD
:10169000C4F202010068096843F64C02C1F302215A
:1016A000C0F60002515CC8407047000040F20C00D8
:1016B00041F20401C2F20000C4F2020100680968AC
:1016C00043F64C02C1F3C221C0F60002515CC8408F
:1016D00070470000002804BF012070472DE9F04149
:1016E00082B00446007841F20006C007C4F2020648
:1016F0000CD0706800F00C00042840F08180306845
:10170000800303D56068002800F04E8120788007B0
:101710001BD5706810F00C0F09D0706800F00C0039
:10172000082840F08B807068C00300F18780306823
:10173000800703D52069012840F03681306861694F
:1017400020F0F80040EAC10030602078000713D490
:10175000207840072CD4E569002D00F020817068C6
:1017600000F00C00082840F0AF80012D40F00C8103
:10177000012002B0BDE8F081A069002800F08C8053
:101780000020C4F242200121C0F88014FFF7AEF817
:10179000054600BF706A800700F1BA80FFF7A6F81F
:1017A000401B0228F6D9032002B0BDE8F08100BF3B
:1017B000F0695FEAC00808D4F06940F08050F06139
:1017C000F06900F080500090009847F20007C4F2E2
:1017D00000073868C0054DD4386840F48070386020
:1017E000FFF784F8054600BF3868C00542D4FFF70C
:1017F0007DF8401B6428F7D9032002B0BDE8F081D2
:10180000706800F00C00082803D17068C0033FF531
:1018100076AF6068002800F00981B0F5A02F00F0D5
:101820001D81B0F5803F00F01D81306820F48030CC
:101830003060306820F4802017E100BF2069002864
:1018400040F20000C4F2422000F08C8001210160CF
:10185000FFF74CF8054600BF306880073FF56EAFD4
:10186000FFF744F8401B0228F6D9032002B0BDE878
:10187000F08100BFE068002800F09A80052800F0A1
:10188000B180012800F0B280306A20F0010030629F
:10189000306A20F00400ACE00020C4F242200021B5
:1018A000C0F88014FFF722F8054600BF706A800771
:1018B0007FF54EAFFFF71AF8401B0228F6D9032038
:1018C00002B0BDE8F08100BF0027C4F2422700202B
:1018D0003866FFF70BF8022D05460DD13068800100
:1018E00040F1D680FFF702F8401B02284FF00300BA
:1018F000F4D902B0BDE8F081306880014FD5FEF721
:10190000F5FF401B02284FF00300F5D9F1E700BFB7
:1019100040F20C00C2F20000006844F6D351C1F25C
:101920006201A0FB0101480A019000BF00BF0198BD
:10193000411E002801913FF40BAF00BF0198411EEA
:10194000002801913FF404AF00BF0198411E002818
:1019500001913FF4FDAE00BF0198411E00280191A6
:10196000E4D1F5E600210160FEF7C0FF054600BFA7
:10197000306880077FF5E9AEFEF7B8FF401B02280C
:101980004FF00300F4D9B4E77068216A00F48032A4
:101990008A4209D1616A00F47010884204D10020A3
:1019A00002B0BDE8F08100BF012002B0BDE8F081C7
:1019B000306A20F001003062306A20F004003062AA
:1019C000FEF794FF054641F2883700BF306A800772
:1019D00022D5FEF78BFF401BB8424FF00300F5D92C
:1019E00087E700BF306A40F004003062306A40F0A0
:1019F00001003062FEF77AFF054641F2883700BFEA
:101A0000306A800708D4FEF771FF401BB842F7D94F
:101A1000032002B0BDE8F081B8F1000F3FF59BAEA6
:101A2000F06920F08050F06195E600BF306820F446
:101A300080303060306820F480203060FEF756FF40
:101A4000054600BF306880037FF560AEFEF74EFFAD
:101A5000401B64284FF00300F4D94AE7306840F493
:101A600080203060306840F480303060FEF73EFF08
:101A7000054600BF306880033FF548AEFEF736FFED
:101A8000401B6428F6D9032002B0BDE8F08100BFF6
:101A9000206AB0F5803F05D17168A26821F4003159
:101AA000114371607168626A21F474111143084333
:101AB000706001203866FEF719FF04463068800127
:101AC0003FF56DAFFEF712FF001B02284FF0030039
:101AD000F4D90EE7411E0020B0EB116F1CBF0120AE
:101AE00070474EF21002CEF2000251604EF62351C2
:101AF000CEF20001F0230B70072190601160704757
:101B0000704700007047000090F83C20012A4FF019
:101B1000020242D010B580F83D200268D2F804E0FD
:101B2000D2F808C00C682EF07003234340F6FF344F
:101B3000C4F20004A242536010DCB2F1804F1FD007
:101B400040F20043C4F200039A4219D040F6000369
:101B5000C4F200039A4213D017E000BF40F60043DE
:101B6000C4F200039A420BD043F20043C4F20103D3
:101B70009A4205D042F60043C4F201039A4204D1CE
:101B800049682CF08003194391600121002280F8FC
:101B90003D1080F83C20BDE8104010467047000022
:101BA000002804BF0120704710B5044690F83D009E
:101BB00028B9002084F83C00204600F085F8022077
:101BC00084F83D00206840F6FF330268C4F2000349
:101BD00043F2004C9842C4F2010C21DCB0F1804F7A
:101BE0002CD040F20041C4F20001884226D040F6D9
:101BF0000001C4F20001884220D0984224DCB0F1F8
:101C0000804F2FD040F20041C4F20001884229D019
:101C100040F60001C4F20001884223D026E000BF54
:101C200040F60041C4F20001884207D0604505D06B
:101C300042F60041C4F201018842DED1A16822F0DF
:101C400070020A439842DADD40F60041C4F2000116
:101C5000884207D0604505D042F60041C4F2010138
:101C6000884203D1216922F440720A43A36922F019
:101C70008001D4F804E0E268194360450160C26263
:101C8000C0F828E005D042F60041C4F201018842C4
:101C900001D16169016301214161002084F846108E
:101CA00084F83E1084F83F1084F8401084F8411006
:101CB00084F8421084F8431084F8441084F84510E6
:101CC00084F83D1010BD00000068B0F1804F18BFCF
:101CD000704780B582B041F21C00C4F20200016876
:101CE000002241F0010101600068002100F00100C4
:101CF000019001981C20FFF7A7FB1C2002B0BDE853
:101D00008040FFF78FBB000090F83D1001291CBFF9
:101D100001207047022180F83D10006840F6FF3234
:101D2000C168C4F20002904241F00101C1600FDCC1
:101D3000B0F1804F1ED040F20041C4F20001884251
:101D400018D040F60001C4F20001884212D018E019
:101D500040F60041C4F2000188420BD043F200413A
:101D6000C4F20101884205D042F60041C4F20101EB
:101D7000884206D1816801F00701062904BF0020CE
:101D80007047016841F001010160002070470000C8
:101D900090F83C20012A4FF0020200F0C58080B587
:101DA00080F83D20D0F800C04FF67772DCF808309C
:101DB00023EA0202CCF808200B684F2B28DC1F2BEB
:101DC00044DD202B45D0302B43D0402B40F0AE805B
:101DD000D1F804E0C968DCF82030DCF8202022F0DB
:101DE0000102CCF82020DCF8182022F0F00242EAB0
:101DF000011123F00A0242EA0E02CCF81810CCF8C6
:101E00002020DCF8081041F0470121F0300180E08B
:101E10006F2B27DDB3F5005F48D0B3F5805F7AD034
:101E2000702B40F08380D1E901E3C968DCF8082019
:101E300043EA0E0322F47F4243EA01211143CCF826
:101E40000810DCF8081041F0770162E00BB1102BAC
:101E50006CD1DCF8081021F07001194341F0070142
:101E600057E000BF502B35D0602B5FD1D1F804E094
:101E7000C968DCF82030DCF8202022F01002CCF811
:101E80002020DCF8182022F4704242EA013123F0CD
:101E9000A00242EA0E12CCF81810CCF82020DCF890
:101EA000081041F0670121F0100132E0D1E901E3AF
:101EB000C968DCF8082043EA0E0322F47F4243EAB3
:101EC00001211143CCF80810DCF8081041F48041DE
:101ED0001FE000BFD1F804E0C968DCF82030DCF86E
:101EE000202022F00102CCF82020DCF8182022F07B
:101EF000F00242EA011123F00A0242EA0E02CCF893
:101F00001810CCF82020DCF8081041F0570121F01F
:101F10002001CCF808100022012180F83D1000219A
:101F200080F83C10BDE88040104670470122F3E77E
:101F30007047000010B5016804460869800744BF77
:101F4000C8685FEA807039D40869400744BFC86830
:101F50005FEA40703ED40869000744BFC8685FEA82
:101F6000007045D40869C00644BFC8685FEAC06015
:101F70004AD40869C0071CBFC8685FEAC07051D165
:101F80000869000644BFC8685FEA006052D4086967
:101F9000400644BFC8685FEA406053D408698006C1
:101FA00046BFC8685FEA806010BD6FF0200220461F
:101FB0000A61BDE81040FFF7A5BD00BF6FF0020049
:101FC0000861012020778869800743D02046FFF709
:101FD000AFFF45E06FF004000861022020778869B8
:101FE00010F4407F40D02046FFF7A2FF42E000BF40
:101FF0006FF00800086104202077C86980073DD091
:102000002046FFF795FF3FE06FF0100008610820C1
:102010002077C86910F4407F3AD02046FFF788FF48
:102020003CE000BF6FF001000861204600F03EF880
:102030002168A5E76FF0800008612046FFF760FD8A
:102040002168A4E76FF040000861204600F030F8F6
:102050002168A3E7204600F025F8204600F024F888
:102060002168002020776FE7204600F01BF820460B
:1020700000F01AF82168002020776CE7204600F075
:1020800011F8204600F010F821680020207769E759
:10209000204600F007F8204600F006F821680020EE
:1020A000207766E770470000704700007047000027
:1020B000704700007047000070470000B0B582B064
:1020C000044600680168C368426901F02F05202DAD
:1020D00003F0200506D12DB1204602B0BDE8B04086
:1020E00001F05EB95FEA017C1EBF02F0010E03F44D
:1020F000907212EB0E0243D1226BCD0618D5012A45
:1021000016D113F0100213D0002101910168019142
:10211000416801910199406940063BD4A08DE18D51
:10212000E28D002A18BF884240F0F28102B0B0BDB3
:102130000A0640F1E78013F0800200F0E38094F893
:1021400041102129F2D1A168B1F5805F03D1216945
:10215000002900F06382216A4A1C226209784160EA
:10216000E18C01390A04E184E0D1C16821F08001E9
:10217000C160C16841F04001C16002B0B0BD00BFA4
:10218000CA0718BF13F4807240F0D0804A0700F1EC
:10219000D380D8E0E06B016849688AB2002AC5D0D4
:1021A000A38D9A42C2D2E1858069202800F09E80EA
:1021B000206850E8030F216820F4807041E8030292
:1021C000DAB1206850E8030F216820F4807041E8FC
:1021D000030292B1206850E8030F216820F4807058
:1021E00041E803024AB1206850E8030F216820F457
:1021F000807041E80302002ADAD1206850E8050F18
:10220000216820F0010041E80502C2B3206850E8CF
:10221000050F216820F0010041E805027AB320682B
:1022200050E8050F216820F0010041E8050232B3B3
:10223000206850E8050F216820F0010041E8050200
:10224000002ADAD11BE000BF206850E8050F2168A2
:1022500020F0400041E80502DAB1206850E8050F9F
:10226000216820F0400041E8050292B1206850E862
:10227000050F216820F0400041E805024AB12068BE
:1022800050E8050F216820F0400041E80502002ACF
:10229000DAD1202084F8420000202063206850E832
:1022A000030F216820F0100041E80302DAB1206832
:1022B00050E8030F216820F0100041E8030292B1BA
:1022C000206850E8030F216820F0100041E8030265
:1022D0004AB1206850E8030F216820F0100041E85F
:1022E0000302002ADAD1E06BFDF78EFF0220606363
:1022F000A08DE18D401A81B2204602B0BDE8B04009
:10230000FFF7D8BE49067FF511AF13F040013FF447
:102310000DAFC16821F04001C1602021204684F842
:10232000411002B0BDE8B04000F0ACBB626C42F0BE
:10233000010262644A0706D5BEF1000F03D0626C49
:1023400042F0020262648A0706D5BEF1000F03D094
:10235000626C42F004026264BCF1000F06D55EEAD2
:10236000050203D0626C42F008026264626C002ACB
:102370003FF4DCAE890604D51DB1204601F010F80B
:1023800020684069616C00F0400001F008014018CD
:1023900000F0B680206850E8030F216820F49070A8
:1023A00041E80302BAB3206850E8030F216820F423
:1023B000907041E8030272B3206850E8030F21686F
:1023C00020F4907041E803022AB3206850E8030F1C
:1023D000216820F4907041E80302002ADAD11AE063
:1023E000206850E8050F216820F0010041E805024F
:1023F000DAB1206850E8050F216820F0010041E8BB
:10240000050292B1206850E8050F216820F0010014
:1024100041E805024AB1206850E8050F216820F024
:10242000010041E80502002ADAD1206B012824D1FD
:10243000206850E8030F216820F0100041E80302F3
:10244000DAB1206850E8030F216820F0100041E85D
:10245000030292B1206850E8030F216820F01000B9
:1024600041E803024AB1206850E8030F216820F0D8
:10247000100041E80302002ADAD1202084F842004B
:102480000020206320684069400640F1C180206838
:1024900050E8050F216820F0400041E80502DAB15C
:1024A000206850E8050F216820F0400041E805024F
:1024B00092B1206850E8050F216820F0400041E803
:1024C00005024AB1206850E8050F216820F040005D
:1024D00041E80502002ADAD1E06B002800F098807C
:1024E00043F29531C0F600014163FDF7B1FE0028CB
:1024F0003FF41CAEE06B416B02B0BDE8B040084752
:102500002046FFF7D9FD0020606402B0B0BD00BFD7
:10251000401A00BF216851E8031F226821F490711E
:1025200042E80313BBB3216851E8031F226821F47A
:10253000907142E8031373B3216851E8031F2268C6
:1025400021F4907142E803132BB3216851E8031F73
:10255000226821F4907142E80313002BDAD11AE0CB
:10256000216851E8051F226821F0010142E80513A6
:10257000DBB1216851E8051F226821F0010142E822
:10258000051393B1216851E8051F226821F001016C
:1025900042E805134BB1216851E8051F226821F07C
:1025A000010142E80513002BDAD1202184F8421002
:1025B00000212163216851E8031F226821F01001E6
:1025C00042E80313DBB1216851E8031F226821F0C0
:1025D000100142E8031393B1216851E8031F2268F8
:1025E00021F0100142E803134BB1216851E8031FA9
:1025F000226821F0100142E80313002BDAD10222F5
:1026000081B22046626302B0BDE8B040FFF752BD20
:10261000204602B0BDE8B040FFF74EBD216A31F858
:10262000022B6FF35F224260216299E5002804BF0C
:102630000120704710B5044690F8410028B90020E9
:1026400084F84000204600F063F8242084F841001C
:102650002068D4E90212C36823F40053C3600369FD
:1026600023F440531A430261D4E904231143C2689E
:10267000194341F20C639A431143C1604169A26955
:1026800021F44071114343F60002C4F2010290426A
:10269000416103D0FEF7F6FF02E000BFFFF706F846
:1026A000D4E90023192148439900B0FBF1F048F226
:1026B0001F5CC5F2EB1CA0FB0C314FF69C73490963
:1026C000C0F6FF7301FB0300322303EB0010A0FBF5
:1026D0000C03F02000EA531000EB0110C3F3431188
:1026E000084490601069202120F4904010615069E6
:1026F00020F02A005061D06840F40050D0600020E3
:10270000606484F8411084F84210606310BD0000DA
:102710002DE9F04186B040F600050446C4F20105FB
:10272000006805F5405100278842049702D006B0A2
:10273000BDE8F08141F21800C4F20200016802AE67
:1027400041F480410160016840F2440801F4804195
:10275000019101990168C4F2020841F0040101608D
:102760000068314600F00400019001984FF40070B9
:10277000029002200390032005902846FDF7B0FF49
:102780004FF48060CDE90207284631460497FDF7F3
:10279000A7FF40F29C0508F11400C2F20005802654
:1027A000C5E900072846C5E90276C5E90477C5E909
:1027B0000677FDF731FF002818BFFDF71FFDE56321
:1027C0006C6240F2E005C2F2000510200021C5E96C
:1027D00000802846C5E90216C5E90411C5E90611BD
:1027E000FDF71AFF002818BFFDF708FD252000217E
:1027F0000022A5636C62FEF727FE2520FEF712FE7D
:1028000006B0BDE8F0810000704700002DE9F043FC
:1028100081B0044690F84100202840F0B1808846FD
:1028200000294FF0010000F0D6801646002A00F083
:10283000D2800020606421201D4684F84100FEF70C
:1028400055F8A684E684A1680646B1F5805F03D1F9
:102850002069002800F0988047464FF00008E18C7E
:102860002068002900F0968005F101090BE000BF07
:1028700047B317F8011B4160E18C0139E184E18C19
:10288000002900F0878001680906F1D4B9F1000F32
:102890000AD0EDB1FEF72AF8801BA84218D82068AC
:1028A00001680906F6D5E3E701680906E0D4016886
:1028B00009065CBF01685FEA0161D9D401680906B5
:1028C000F2D5D5E738F8021B00276FF35F21D2E776
:1028D000206850E8030F216820F4D07041E803021B
:1028E000BAB3206850E8030F216820F4D07041E8A3
:1028F000030272B3206850E8030F216820F4D070FF
:1029000041E803022AB3206850E8030F216820F44D
:10291000D07041E80302002ADAD11AE0206850E8BA
:10292000050F216820F0010041E80502DAB12068B6
:1029300050E8050F216820F0010041E8050292B13E
:10294000206850E8050F216820F0010041E80502E9
:102950004AB1206850E8050F216820F0010041E8E5
:102960000502002ADAD1202084F8410084F84200D0
:10297000002084F84000032001B0BDE8F08300BFD0
:10298000022001B0BDE8F0830027E18C2068002917
:102990007FF46AAF0168490619D4FDB1691C0DD1F5
:1029A0000168490613D4016849065CBF01685FEA03
:1029B00041610CD401684906F2D508E0FDF796FFA5
:1029C000801BA8420AD8206800684006F6D520205F
:1029D00084F84100002001B0BDE8F083206850E891
:1029E000030F216820F4D07041E80302002A3ED092
:1029F000206850E8030F216820F4D07041E80302FA
:102A0000AAB3206850E8030F216820F4D07041E891
:102A1000030262B3206850E8030F216820F4D070ED
:102A200041E80302002AD9D121E000BF206850E824
:102A3000050F216820F0010041E80502002A3FF45B
:102A400092AF206850E8050F216820F0010041E8AE
:102A50000502002A3FF487AF206850E8050F21687F
:102A600020F0010041E80502002A3FF47CAF206815
:102A700050E8050F216820F0010041E80502002A16
:102A8000D4D170E770470000FEE7000040F2241048
:102A9000C2F20000FDF734BF40F22410C2F2000081
:102AA000FDF7D8BF10B581B000210091406A40F217
:102AB0000C01C2F2000190F83DC009684BF2895246
:102AC000C908C1F2F842A1FB0212110A23225143A4
:102AD0000091009911B300990139009101680968CA
:102AE00089051FD50099C9B1009901390091016884
:102AF0000968890516D5009981B1009901390091BD
:102B00000168096889050DD5009939B10099013925
:102B10000091016809688905DBD403E0016C41F08C
:102B200020010164446B4FF0000E002C1CBF0021FB
:102B3000A162816B00291CBF00228A620268002CFE
:102B4000136823F480631360A0F82AE018BFC4F868
:102B500034E000291CBF00234B63116821F0010100
:102B6000116090F83D1060290CD1202180F83D10B3
:102B7000002180F83E10016401B0BDE81040FDF76F
:102B8000BBBE00BF0CF02801282911D1116841F00B
:102B900001011160116841F480611160002101633D
:102BA000282180F83D1001B0BDE81040FEF772BA50
:102BB000202180F83D10002180F83E1001B0BDE8D2
:102BC0001040FEF767BA000010B5044690F83D10BB
:102BD00090F83E00B0F1100218BF0122403818BF33
:102BE0000120024208BF222934D001F02800282801
:102BF0003AD100202063282084F83D0020684168F5
:102C0000090542D5416821F400614160606B90F88C
:102C10002110012958D1A06B42F6A521C0F6000170
:102C20004163FDF715FB002861D020684169490622
:102C300006D50069616A0870616A206801316162C5
:102C4000016821F001010160202084F83D00A06BA3
:102C50004BE000BF2068026822F400620260426814
:102C6000120505D50CE000BF20684268120507D4A4
:102C7000602905D0202184F83D10002184F83E1001
:102C80000021216341680905BCD494F83D106029F6
:102C900050D1202184F83D1000212164416949066A
:102CA00006D50069616A0870616A20680131616255
:102CB000016821F0010101602046FDF71DFE206C36
:102CC000000717D11BE000BF42F6A521C0F60001A6
:102CD0004163FDF7BDFA50B12168606B0A6822F0CC
:102CE00001020A60202184F83D10416B8847206C66
:102CF000000704D02068416821F4E061416094F845
:102D00003D00216C490758BF10BD282810D1002074
:102D1000CFF6FF70E06200212020216384F83D009F
:102D2000204684F83E10BDE81040FEF767BA00BFA9
:102D300010BD00BF4169490605D50069616A087088
:102D4000606A013060622046FEF7A4F9206C00073B
:102D5000D0D1D4E7C16A428D042A07D10168426A02
:102D60004B6823F480634B60096911E0428D032AAC
:102D700016D102680229536823F48063536005D09A
:102D8000042903D0116821F4806111601169426A3D
:102D90001170416A01314162418D013941857047AD
:102DA000428D022A12D101390F2919D8DFE801F02A
:102DB00008121812181818181818181818181808BF
:102DC00001680A6822F480620EE000BF0168426A6E
:102DD000CAE700BF01680A6842F4806204E000BFED
:102DE00001680A6842F400720A600969426A117057
:102DF000416A02684B1C4362438D013B4385126963
:102E00004A70416A026801314162418D0139418550
:102E1000516821F440715160202180F83D1090F8F4
:102E20003E200021402A80F83E1003D10163FEF7C6
:102E300011BA00BF12210163FEF7E2B981B090F828
:102E40003D1022290FD1418D04290FD30168426A18
:102E500009691170416A01314162418D0139418531
:102E6000418D03295ED001B0704700BFC26A0129BD
:102E700058D8022A56D00021009140F20C01C2F22B
:102E8000000109684BF28952C908C1F2F842A1FB5E
:102E90000212110A01EB81010091009901390091A0
:102EA0000099002946D001680A6892051AD5009950
:102EB000013900910099E9B301680A68920511D5BA
:102EC0000099013900910099A1B301680A6892053F
:102ED00008D5009901390091009959B301680A6831
:102EE0009205DAD40A6822F480620A604A6822F401
:102EF000E0624A600969426A1170416A01314162C7
:102F0000418D01394185202180F83D1090F83E2007
:102F10000021402A80F83E1028D1016301B0FEF75D
:102F200099B900BF0068416821F48061416001B037
:102F3000704700BF016C41F0200101640168426AE2
:102F40004B6823F4E0634B6009691170416A0131F9
:102F50004162418D01394185202180F83D100021D9
:102F600080F83E1001B0FEF795B800BF1221016352
:102F700001B0FEF745B90000C16A90F83D20212A52
:102F800018BF7047428D4AB1416A026811F8013B8F
:102F900013614162418D01394185704711F5803FD0
:102FA00018BF082918D101684A6822F4E0624A6013
:102FB0000A6842F400720A6000212022016380F84E
:102FC0003D2090F83E2080F83E10402A08BFFEF7D2
:102FD00043B9FEF71FB900BF2029E4D001684A6851
:102FE00022F4E0624A6011210163002180F83E1062
:102FF000202180F83D10FEF70DB9000090F83D103B
:1030000090F83EC0C26A038D002B08BF212919D059
:10301000212905D0BCF1400F08BF222900D07047FC
:10302000418D69B390F83E10402908BF00F040B8C8
:10303000416A026811F8013B13614162418D013917
:103040004185704712F5803F18BF082A1ED10168DC
:103050004A6822F4E0624A600A6842F400720A6038
:1030600000212022016380F83D2090F83E2080F866
:103070003E10402A08BFFEF7EFB8FEF7CBB800BFFE
:103080000068416821F4806141607047202ADED0E9
:1030900001684A6822F4E0624A601121016300215C
:1030A00080F83E10202180F83D10FEF7B3B80000F4
:1030B00090F83D10026D5AB1026D012A14D10168D9
:1030C000826CD2B20A61016D01310165704700BFA7
:1030D000C26C816C012A15D10268C9B21161016DFF
:1030E00002310165704700BF026D022A12D1222908
:1030F00018D101680A6842F480720A60016D0131DA
:10310000016570470268C1F307211161016D01314A
:103110000165704700684169090644BF00210161EB
:10312000704700BF428D5AB1212909D1416A026816
:1031300011F8013B13614162418D013941857047AE
:10314000428D002A08BF2129EAD101684A6822F489
:10315000E0624A600A6842F400720A60002120229C
:10316000016380F83D2080F83E10FEF775B800003E
:1031700080B582B041F21400C4F20200016800225E
:1031800041F0010101600068002100F001000190A0
:1031900001980E20FEF758F90E20FEF743F90F2094
:1031A00000210022FEF750F90F20FEF73BF9102016
:1031B00000210022FEF748F91020FEF733F9112014
:1031C00000210022FEF740F9112002B0BDE8804046
:1031D000FEF728B9F0B585B0002641F21800049634
:1031E000C4F20200016840F6004441F04001016071
:1031F0000168C4F2010401F04001009100990168E6
:10320000002241F0080101600168012701F0080176
:1032100000910099016841F020010160016801F00E
:10322000200100910099016841F0040101600068EB
:10323000012100F00400009000982046FDF750FBAB
:1032400040F2055001A901ADC1C104F54060294615
:10325000FDF746FA0220049020462946CDE9017781
:103260000396FDF73DFA48F6120001A9C1C104F525
:1032700000602946FDF734FA05B0F0BD80B540F294
:10328000241045F20041C2F20000C4F2000141F6F0
:10329000802200234FF4804CC0F2060280E80E002A
:1032A000C0E9033CC0E90533C0E90733FDF7F4FE8C
:1032B000002808BF80BDBDE88040FCF79FBF00002C
:1032C00080B586B040F278100021C2F200004FF0C5
:1032D000804241F61F4342F20F7C0591CDE9031174
:1032E000CDE90011C0E90023C0E9021C0161816140
:1032F000FEF756FC002818BFFCF780FF4FF4805003
:10330000029040F27810C2F2000002A9FEF740FDE0
:10331000002818BFFCF772FF40F27810C2F20000DC
:103320006946FEF7F1FB002818BFFCF767FF06B0FF
:1033300080BD000080B540F2C01043F60001C2F22B
:103340000000C4F2010100234FF00C0C4FF4E132F5
:1033500080E80E00C0E90333C0E905C3C361FFF78D
:1033600065F9002808BF80BDBDE88040FCF746BF76
:10337000FEE70000FEE70000704700007047000015
:10338000FDF7E8BF7047000040F27810C2F200007D
:10339000FEF7D0BD406A0021C185C184FEF78CBE16
:1033A00081B090F84210222921D183680246B3F5FA
:1033B000805F09D152F8281F52F8183C002B63D0C7
:1033C00003685B680AE000BF52F8281F13B903695D
:1033D000002BF5D003685B6803F07F030B70116866
:1033E00001311160C18D01390A04C18502D001B0DB
:1033F000704700BF0168CA6822F02002CA60CA682C
:1034000022F48072CA604A6922F001024A612021D6
:1034100080F8421000214163026B012A3CD1016314
:10342000016851E8031F026821F0100142E803130C
:10343000DBB1016851E8031F026821F0100142E886
:10344000031393B1016851E8031F026821F01001D2
:1034500042E803134BB1016851E8031F026821F0F1
:10346000100142E80313002BDAD101680A68D20682
:1034700006D5002200920A680092496800910099DE
:10348000818D01B0FEF716BE026852686FF35F22AD
:1034900021F8022B8162A5E701B0FFF7B5B9000062
:1034A00040F2C010C2F20000FEF708BEFEE70000C6
:1034B00080B582B0019040F2C010C2F2000001A9B4
:1034C00001224FF6FF73FFF7A1F9019802B080BD0A
:1034D00094B0FDF74DFF00240120CDE90F44CDE964
:1034E0000D440A900E904FF4E0104FF48031022505
:1034F00013900AA8CDE90B14CDE91151FEF7EAF8B3
:1035000020B1EFF3108072B6FEE700BF0F20CDE9C7
:1035100005054FF48060CDE9080405A80221079451
:10352000FDF7CEFF20B1EFF3108072B6FEE700BFCB
:1035300041F20044C4F20104FFF74CFEFFF718FE0D
:10354000FFF7F8FEFFF7BCFEFFF798FE40F2781099
:10355000C2F20000FEF7D8FB45A000F05DF904F5CB
:1035600080600190019C04212046FDF7B3F90546D7
:10357000049020460121FDF7ADF945EA400841F2EB
:103580000045C4F2010528464FF40061FDF7A2F999
:10359000860028461021FDF79DF946EAC00040EA62
:1035A000080628464FF40041FDF794F907462846DF
:1035B0000221FDF78FF9400140EA071040EA0607B3
:1035C00020464FF48071FDF785F9054620464FF4FB
:1035D0008061FDF77FF9C00140EA851040EA0704E9
:1035E0000120E5B2FDF768F840F21000C2F20000D9
:1035F0000470C8F340000390C6F3800002900A20D4
:10360000C6F3C00BC7F30016C7F34018C4F3801904
:103610004FEAD51A00F0FAF843F68804C0F6000421
:103620002046514600F028F82046494600F024F88C
:103630002046414600F020F82046314600F01CF8B4
:103640002046594600F018F80299204600F014F878
:103650000399204600F010F8049800F0010120467C
:1036600000F00AF84FF47A70FDF726F87AE700BF09
:1036700072656164790000000FB4054B10B503A9B1
:10368000044A029800F018F810BC5DF814FB000022
:10369000B13400080000002002E008C8121F08C171
:1036A000002AFAD170477047002001E001C1121FC3
:1036B000002AFBD1704700002DE9FF4F89B09B46DF
:1036C0000446002506E025280BD05A460B99904762
:1036D000641C6D1C20780028F5D10DB02846BDE88B
:1036E000F08F0027B8460122474900E0074314F84D
:1036F000013F203B02FA03F00842F7D120782E2840
:1037000019D114F8010F47F004072A280ED06FF0E2
:103710002F022078A0F1300109290CD808EB88018C
:1037200002EB410100EB0108641CF2E70A98641CFB
:1037300050F8048B0A9020780028CED0642808D056
:10374000692806D075281ED05A460B9990476D1CE3
:1037500058E00A994FF00A0901C90A91002802DAD3
:1037600040422D2102E0390504D52B218DF820108F
:10377000012103E0F90704D02021F7E78A4608AECB
:103780000DE00021FAE70A994FF00A0901C90A91F0
:10379000F7E74946FCF7E8FC303106F8011D002840
:1037A000F7D1ADEB060000F12009780701D44FF006
:1037B0000108C84502DDA8EB090000E000208046B2
:1037C000002706E008A85A46C05D0B9990476D1C7B
:1037D0007F1C5745F6DB04E030205A460B99904792
:1037E0006D1CB8F10001A8F10108F5DC05E016F840
:1037F000010B5A460B9990476D1CB9F10001A9F1D4
:103800000109F4DC641C65E7092801000149FFF7A0
:103810004FBE00000000002010B5044601E0FFF795
:1038200047FE14F8010B04490028F8D1BDE8104008
:103830000A20FFF73DBE000000000020000000004D
:103840000000000001020304060708090000000050
:1038500001020304010202030405060708090A0B1A
:103860000C0D0E0F1010E8BF9BE585A5693263E5CE
:103870008F91E98081E4B8ADE696ADE59B9EE8B016
:1038800083E587BDE695B00025640000B0380008E8
:10389000000000201000000098360008C038000822
:1038A0001000002000060000A836000800000000FC
:1038B0000000000001000000100000000024F400DF
:0400000508000131BD
:00000001FF
