:020000040800F2
:10000000280600204501000841340008A12B000803
:100010003D340008C5010008FD350008000000005F
:10002000000000000000000000000000493400084B
:10003000790200080000000045340008D1340008AF
:100040005F0100085F0100085F0100085F01000810
:100050005F0100085F0100085F0100085F01000800
:100060005F0100085F0100085F0100085F010008F0
:100070005F0100085F010008C9010008D501000800
:10008000E1010008ED0100085F0100085F010008C0
:100090005F0100085F0100085F0100085F010008C0
:1000A0005F0100085F0100085F0100085F010008B0
:1000B000D93400085F0100085F010008B12B000877
:1000C000A52B00085F0100085F0100085F01000820
:1000D0005F010008F13500085F0100085F010008BA
:1000E0005F0100085F0100085F0100085F01000870
:1000F0005F0100085F0100085F0100085F01000860
:100100005F0100085F0100085F0100085F0100084F
:100110005F0100085F0100085F0100085F0100083F
:100120005F0100085F0100085F0100085F0100082F
:10013000DFF80CD000F02EF8004800472136000808
:10014000280600200648804706480047FEE7FEE7ED
:10015000FEE7FEE7FEE7FEE7FEE7FEE7FEE7FEE777
:10016000D53400083101000830B50B4601460020A7
:100170002022012409E021FA02F59D4205D303FA69
:1001800002F5491B04FA02F52844151EA2F10102EA
:10019000F1DC30BD1CB509480090094801900546C6
:1001A000009C06E0E06840F0010394E807009847EF
:1001B0001034AC42F6D3FFF7BFFF0000083B000845
:1001C000283B0008FEE7000040F2F800C2F2000001
:1001D00000F05EB940F2B400C2F2000000F058B97D
:1001E00040F27000C2F2000000F052B940F22C0060
:1001F000C2F2000000F04CB941F2040140F20C03DD
:10020000CEF20001C2F200030A68D3F800C04DF636
:100210008363C4F21B33ACFB033C4FEA9C4358435B
:1002200009E000BF0B689B1A834228BF70470B6828
:100230009B1A834207D20B689B1A834203D20B6836
:100240009B1A8342EED370474EF6FC50CEF200006C
:100250000168C90148BF7047016841F080710160C1
:1002600041F20000CEF2000000214160016841F03F
:1002700001010160704700007047000070B5C2685E
:10028000036805460C46012011469847D5E902212E
:10029000012090472A68E96800209047D5E90221AB
:1002A000002090472846992103F0B6FA20B9284645
:1002B000012103F02DFA06462A68E96800209047DC
:1002C000D5E90221012090472A68E968012090477A
:1002D00006F001012170C6F340016170C6F3800190
:1002E000A170C6F3C001E170C6F30011F0B2217134
:1002F000C6F340116171C6F38011C009A171E071AC
:1003000070BD0000EFF3108072B600BFFEE7000082
:10031000014690F82100022816D10868D1E90FC3E0
:10032000026822F00E020260026822F001020260FE
:10033000012000FA03F2CCF8042081F8210000200B
:10034000002281F8202070470420886301200022C9
:1003500081F820207047000090F82110022927D151
:10036000026840F2040C1368C4F2020C23F00E037E
:10037000136013680CF17C018A4223F001011160C3
:100380001AD940F20841C4F202018A4248D040F230
:100390001C41C4F202018A4246D040F23041C4F20C
:1003A00002018A4244D14FF48073CCF800345CE0FF
:1003B00004218163012070474321C4F202018A4273
:1003C0000EDD6B21C4F202018A421BDC4421C4F21F
:1003D00002018A423CD05821C4F202018A4233E031
:1003E0000821C4F202018A4236D01C21C4F2020163
:1003F0008A4237D03021C4F202018A4224D14FF41C
:10040000807230E06C21C4F202018A4226D0802141
:10041000C4F202018A4217D14FF0807223E000BF7C
:100420000123CCF8003420E01023CCF800341CE089
:100430000CF588614FF480338A4208BF4FF4805333
:10044000CCF8003411E000BF4FF480320BE000BF65
:100450004FF4805207E000BF012204E04FF4801205
:1004600001E000BF1022CCF80020012180F821100B
:10047000426B002180F8201022B180B59047002106
:10048000BDE880400846704790F8210070470000A2
:1004900010B5D0E90FE3D0F800C0DEF80020DCF89A
:1004A0000010DA4054072DD511F004042AD0DCF8EE
:1004B0000010890605D4DCF8001021F00401CCF806
:1004C00000100422C4F2020202F17C018C454BD9D7
:1004D00040F20841C4F202018C4500F0AF8040F2C6
:1004E0001C41C4F202018C4500F0AC8040F2304166
:1004F000C4F202018C4540F0A9804FF48061C2F83B
:100500000014F3E0940745D511F0020442D0DCF862
:100510000010890608D4DCF8001021F00A01CCF89C
:100520000010012180F821100422C4F2020202F11D
:100530007C018C454CD940F20841C4F202018C4543
:1005400000F0B48040F21C41C4F202018C4500F07E
:10055000AF8040F23041C4F202018C4540F0AA80E5
:100560004FF40071AEE000BF4321C4F202018C459C
:1005700044DD6B21C4F202018C4551DC4421C4F2FC
:1005800002018C4500F0A2805821C4F202018C4582
:1005900068E000BF120740F1C18011F0080108BFF8
:1005A00010BDDCF8001021F00E01CCF80010012184
:1005B00001FA03F2CEF80420816380F82110016B68
:1005C0000022002980F8202040F09280A6E000BFA1
:1005D0004321C4F202018C4548DD6B21C4F20201C3
:1005E0008C4555DC4421C4F202018C4500F0848026
:1005F0005821C4F202018C4572E000BF0821C4F208
:1006000002018C4566D01C21C4F202018C456BD0DE
:100610003021C4F202018C4524D14FF4806164E0A2
:100620006C21C4F202018C4556D08021C4F2020133
:100630008C4517D14FF0806157E000BF0421C2F80C
:10064000001453E04021C2F800144FE002F5886323
:100650004FF480219C4508BF4FF48041C2F800143C
:1006600044E000BF4FF480213FE000BF0821C4F206
:1006700002018C4544D01C21C4F202018C4545D0B6
:100680003021C4F202018C452AD14FF400713EE0C2
:100690006C21C4F202018C4534D08021C4F20201E5
:1006A0008C451DD14FF0007131E000BF022109E0FF
:1006B000202107E002F588634FF400319C4508BF14
:1006C0004FF40051C2F8001422E000BF4FF4804103
:1006D0000BE000BF042108E04FF4800105E000BFFB
:1006E0004FF4003113E000BF40211160C16AA9B18D
:1006F000BDE81040084700BF4FF4005107E000BFBD
:10070000022104E04FF4001101E000BF202111603C
:10071000816A0022002980F82020E9D110BD000064
:10072000014600284FF0010008BF70472DE9F0474F
:1007300040F2000CC4F2020C0A684FF6F8330CF5D4
:10074000816ECBF6FD73724538BF03F5806303EB12
:10075000020E4CF6CD43CCF6CC43AEFB033E6FF01D
:1007600003060CF5806506EA9E06D1E901A9D1F8D9
:100770000C803CBF0025C4F20205C1E90F560226D9
:1007800081F82160166843F6F075AE4346EA0A0622
:10079000D1E9045746EA090646EA0806D1E90643C4
:1007A0002E43374327433B43136000228A6381F87B
:1007B000210081F820200020BDE8F04770470000AC
:1007C0002DE9F04F82B00E68002E00F0EF80A0F10E
:1007D0008042A2F58432870547EA922241F600471B
:1007E00040F2004EC4F201070625C4F2010EB842E1
:1007F00008BF052500244FF001080F234FF0000A21
:100800004FF0000B052A38BF1546009509E000BFE0
:100810000E680AF1010A36FA0AF204F1040400F043
:10082000C58008FA0AFC16EA0C09F1D04E684FF6AA
:10083000FF72C1F21002964212DC122E56D8DFE887
:1008400006F0350B45495555555555555555555592
:100850005555554D510000BFD1F80CB046E000BFD2
:100860004FF6FF72C1F2210296420FDC0022C1F264
:10087000110296421AD00022C1F21202964215D0FD
:100880000022C1F22102964210D02FE00022C1F2D4
:10089000220296420AD00022C1F23102964205D0CD
:1008A0000022C1F23202964220D100BF8A684AB1CA
:1008B000012A14BFC0F814C0C0F810C04FF0080BD4
:1008C00014E000BF4FF0040B10E000BFCA6802F153
:1008D000080B0BE04FF0000B08E000BFCA6802F104
:1008E000040B03E0CA6802F10C0B00BF2246064667
:1008F000B9F5807F24BF203A0436376803FA02F541
:10090000AF430BFA02F23A433260CA79D2067FF55E
:100910007FAF41F21807C4F202073A684FF6084366
:1009200042F001023A603A68CFF6FF7302F001022A
:100930000192019A2AF0030272440F25D75804F05D
:100940000C06B540AF43009D05FA06F63743D75075
:100950004E6840F20C45F202DEF8082054BF22EA4D
:10096000090242EA0902C4F20105CEF808202A6809
:10097000B70254BF22EA090242EA09022A60DEF8FD
:100980000420B70354BF22EA090242EA0902CEF862
:1009900004200F23DEF80020F70354BF22EA0902E7
:1009A00042EA0902CEF8002032E700BF02B0BDE8FB
:1009B000F08F00008068084018BF012070470000D9
:1009C000002A08BF090401617047000040F220209E
:1009D000C2F20000006870477047000070470000D6
:1009E000F0B581B00446006800254769426894F874
:1009F0003E1002F48076FA0508D53EB16FF480729D
:100A000042610268012542F400420260BA0505D540
:100A1000002E1EBF02356FF4007242617A0516D5B2
:100A2000AEB1628D94F83D30D4F830C0202908BFB3
:100A3000002A23D06FF48062402905F10405426149
:100A400001D0102903D1016841F40071016038051B
:100A500006D52EB1206808356FF40061416100E0D1
:100A600055B1206C40EA05012046216401B0BDE883
:100A7000F04002F035B900BF01B0F0BD03F0F7015E
:100A8000212909D0282B08BFBCF1210F04D06FF415
:100A9000806141610435DAE794F83D10E26AB2F111
:100AA000080318BF0123203A18BF0122134208BFD0
:100AB000282921D0212939D10021CFF6FF71E16207
:100AC00021212163202184F83D10002184F83E106B
:100AD000426822F4E06242606FF480624261026820
:100AE00022F4806202604269120648BF016120461A
:100AF00000F078FCABE700BF0021CFF6FF71E162A8
:100B0000416821F4E06141606FF4806141610168F6
:100B100021F48061016000202021206384F83D10D1
:100B200084F83E00204600F0D9FB90E76FF4806126
:100B300041618CE7F0B581B0076804467868E26AE5
:100B400094F83E3094F83DE0402B01D0102B1BD19F
:100B5000BD697E69F10745D1B2F12A4F00F060828C
:100B6000B2F52A0F00F05C82310700F4007240F108
:100B70000981002A00F00681606B616C0028C9B20F
:100B8000396140F0EE80EEE0216C00F40073002942
:100B90000CBFBD6900257E69B1073DD5E3B3206C6C
:100BA000002818BFBD6994F83D0000F028002828EF
:100BB00074D17868012120F48060786005F0040029
:100BC00081EA900128064FF0180058BF0C20225AE5
:100BD0000023204684F83C3001B0BDE8F040FFF728
:100BE000FDBE00BF810541D44FF0010C79686A0752
:100BF00042D4090500F1148206F04401402940F076
:100C0000318110F4806000F02D81204601B0BDE8F4
:100C1000F04002F09FB900BFF1064BD5002B49D040
:100C200094F83D50786820F4E060786000200090EF
:100C300078690090386840F00100386000983868A2
:100C400020F4806038607868000540F1508105F03C
:100C5000F7002646222840F0298156F8380F01680F
:100C6000496826F80E1C36F80E1C27E1E06AB0F53C
:100C70002A0F51D1012054E0090500F1D18106F07D
:100C80008401802940F0FE8010F4806000F0FA803A
:100C9000204601B0BDE8F04002F03CBA00200090D0
:100CA00079690091B9690091009984F83C0001B01C
:100CB000F0BD00BF0EF0F701212940F0958006F04D
:100CC0008401802940F0648110F4806000F060812C
:100CD00094F83D00618D002900F0A281616A11F84D
:100CE000012B3A616162618D01396185618D002955
:100CF00008BF292840F094817868282120F480607A
:100D0000786021202063204684F83D1001B0BDE8C2
:100D1000F04000F067BB00BFE06AB0F12A4F01D19C
:100D20000820E06294F83E0040280BD1206D616CF1
:100D3000002801F0FE0018BF40F00100386101B04A
:100D4000F0BD00BF2069B0F5804F7BD194F83D0025
:100D5000616C212801F0FE0118BF01313961606B1F
:100D600008B1806A38B9A06B002800F05981806A08
:100D7000002800F05581786840F40060786001B088
:100D8000F0BD00BF4FF0010CB1078CEA522C7FF58B
:100D90002DAF002A3FF42AAF94F83E30E06A226B70
:100DA00094F83D10222940F0FF80216D002908BFF2
:100DB000402B00F0F980216D002940F0338121693A
:100DC000B1F5404F40F02E810020009078690090EE
:100DD000B86900900098386840F480703860206DE1
:100DE0000130206501B0F0BD06F04401402940F01B
:100DF000E58010F4806000F0E18094F83D00618DA2
:100E0000002900F00D813969626A1170616A01314F
:100E10006162618D01396185618D002908BF2A28D1
:100E200040F0FE802068416821F48061416022200A
:100E300028212063204684F83D1001B0BDE8F04031
:100E400000F0CEBA206D002800F0C880206D012887
:100E500040F0E680606C062101EAD010F130386184
:100E600001B0F0BD06F00400012181EA900050EAD3
:100E70000C0040F0D580204601B0BDE8F04001F004
:100E8000F5BF00BF06F00400012181EA900050EA9E
:100E90000C0040F0C580BEF1210F40F0B980204623
:100EA00001B0BDE8F04002F0F3B800BF56F8340FCF
:100EB0000168496826F80A1C36F80A1C19B1216C29
:100EC00041F004012164796821F400617960FFF741
:100ED000DBFA01280BD0306842F6BD31C0F60001C4
:100EE0004163FFF739FA10B13068416B8847608D74
:100EF00060B120684169490730D4416949063AD454
:100F0000608D18B1206C40F004002064206C28B182
:100F1000204601B0BDE8F04001F0E2BE2A2D07D125
:100F200000202063282084F83D00204600F058FA75
:100F300094F83D00282859D10020CFF6FF70E062D8
:100F400000212020216384F83D00204684F83E10D3
:100F500001B0BDE8F04000F0C1B900BF0069616AAE
:100F60000870616A206801316162618D01396185B3
:100F700041694906C4D50069616A0870606A013038
:100F80006062608D01386085608D0028BAD1BDE750
:100F9000700745D5002B43D0608D002840D0606A93
:100FA00010F8011B396113E000200090786900906F
:100FB000B8690090009801B0F0BD00BF70072FD550
:100FC00073B3608D60B33869616A0870606A01301C
:100FD0006062608D0138608522E000BF606C062190
:100FE00001EAD010F030386101B0F0BD206B22284A
:100FF00018BF222D14D100212020216384F83D0048
:10100000204684F83E1001B0BDE8F04000F0E8B999
:10101000402B05D1204601B0BDE8F04002F0D4B825
:1010200001B0F0BD618D51B1618D012916D120282B
:1010300018BF082842D1386820F48060386000204A
:10104000009078690090B86900900098386840F482
:10105000007038600020206501B0F0BD618D02296C
:1010600014D110284ED8012114228140C0F201026F
:10107000114247D0396841F4806139600021009104
:1010800079690091B969009100994AE0396841F4A1
:1010900080613960796809055DD5421E1F2A57D8DD
:1010A0000121914048F28102C8F2000211424FD062
:1010B000786840F4805078604DE000BF10F5803FC4
:1010C0000CD1386820F48060386078680005B6D5A7
:1010D000386820F4806038603DE000BF122A01D1FA
:1010E0000128A8D11028F3D8012101FA00F0142119
:1010F000C0F201010842EBD0386840F480603860EB
:1011000029E000BF396841F4006139600021009195
:1011100079690091B96900910099396821F4806179
:101120003960796809051DD5421E1F2A1ED8012184
:10113000914048F28102C8F20002114216D078684C
:1011400040F4805078600020206501B0F0BD00BF01
:1011500010F5803FACD00020009078690090B8690D
:10116000009000980020206501B0F0BD10F5803F90
:10117000E5D0F7E770470000002804BF0120704762
:10118000F0B581B0044690F83D0028B9002084F8FD
:101190003C00204600F0ACF8242084F83D00206894
:1011A000016821F001010160016841F40041016022
:1011B000016821F40041016000F0AEFA636848F272
:1011C000A16CC0F2010C40F60011C0F23D01634574
:1011D0003CBF48F28041C0F21E01884202D2012089
:1011E00001B0F0BD4DF68361C4F21B31A0FB0112CA
:1011F0002168970CD1F804E04FF496762EF03F0565
:1012000045EA92454D60774348F638160D6AC0F2BC
:101210004106A7FB067625F03F07634538BF960CCD
:10122000721C3A430A62CA6948F2A0664CF6FF771C
:10123000C0F20106B34222EA07020BD801385B0074
:10124000B0FBF3F001306FF31F30042898BF042087
:101250001BE000BFA768013857B119277B43B0FBDB
:10126000F3F001306FF31F3070B100F5804007E0FC
:1012700003EB4303B0FBF3F001306FF31F3018B101
:1012800000F5004001E000BF01201043C86108687C
:10129000D4E9072320F0C000104318430860886891
:1012A00048F2FF3204F10C0790438CCF18431043EF
:1012B000A6698860C86820F0FF0038433043C860E2
:1012C000086840F00100086000202021206484F8B4
:1012D0003D10206384F83E0001B0F0BD704700006F
:1012E0007047000070470000704700007047000022
:1012F0002DE9F04186B0044645F200402168C4F271
:10130000000000278142049702D006B0BDE8F081BA
:1013100041F21805C4F20205296840F26C0841F058
:1013200008012960296800F5384001F008010191A1
:101330000199C0210291122103910321059102A973
:10134000C4F20208FFF73CFA6868802640F40010F7
:101350006860686840F22C0500F400100190019864
:1013600008F11400C2F20005C5E900072846C5E9E6
:101370000276C5E90477C5E90677FFF7D1F90028B9
:1013800018BFFEF7BFFFA5636C6240F27005C2F2A2
:10139000000510200021C5E900802846C5E9021695
:1013A000C5E90411C5E90611FFF7BAF9002818BF0D
:1013B000FEF7A8FF1F200021002265636C6200F089
:1013C0008DF81F2000F078F820200021002200F086
:1013D00085F8202000F070F806B0BDE8F08100002C
:1013E000704700007047000040F2040040F22021E6
:1013F000C2F20000C2F2000100780A6810440860DE
:101400007047000080B542F20000C4F2020001689B
:1014100041F010010160032000F08CF80F2000F073
:1014200005F800F027F8002080BD000070B540F2FC
:101430000406C2F2000640F20C013278C2F200014A
:101440004FF47A730968B3FBF2F20446B1FBF2F190
:10145000084600F089FB0F2C4FF0010508D838B979
:101460004FF0FF3021460022002500F037F874606D
:10147000284670BD82B041F21800C4F20200016833
:10148000022241F001010160016801F001010191B6
:101490000199416841F080514160406800F08050FE
:1014A000009000980420C4F20100016862F31A6100
:1014B000016002B070470000002848BF704700F08C
:1014C0001F01012202FA01F11C2202EAD0004EF2B1
:1014D0000012CEF2000281507047000010B54EF6A7
:1014E0000C5CCEF2000CDCF80030C3F3022E8EF060
:1014F0000704042C28BF0424BEF103034FF0FF3E71
:101500000EFA04F438BF0023A14399400EFA03F306
:101510009A43114300F00F0200F160430901043ABD
:1015200003F564436244002848BF02F10C031970BC
:1015300010BD00004EF60C51CEF200010A684FF6C5
:10154000FF031A4060F30A2242F0806040F0FD7011
:1015500008607047002804BF012070472DE9F04360
:1015600081B042F20008C4F202080446D8F8000034
:101570000D4600F0070088420CD2D8F8000020F099
:1015800007002843C8F80000D8F8000000F0070062
:10159000A8426CD1206841F204098107C4F2020913
:1015A00017D5410705D5D9F8001041F4E061C9F815
:1015B0000010010705D5D9F8001041F46051C9F8B1
:1015C0000010D9F80010A26821F0F0011143C9F809
:1015D0000010C00742D1D8F8000000F00700A84270
:1015E0000CD9D8F8000020F007002843C8F8000004
:1015F000D8F8000000F00700A84238D12068410761
:1016000007D5D9F80010E26821F4E0611143C9F868
:101610000010000708D5D9F80000216920F46050B7
:1016200040EAC100C9F80000D9F8002002F00C001F
:10163000082841F20020C0F27A0051D143F6F2238B
:10164000C2F38341C0F60003595CD2033CD440F698
:101650000010C0F23D00484342E000BF606802282D
:101660000AD001282AD159F8041C890308D4012082
:1016700001B0BDE8F08300BF59F8041C8901F6D51C
:10168000D9F8001021F003010843C9F80000FFF762
:101690009DF9064641F28837D9F80000616800F0EC
:1016A0000C00B0EB810F96D0FFF790F9801BB84289
:1016B000F2D9032001B0BDE8F08300BF59F8041C43
:1016C0008907D4D5DCE700BFD9F8002043F6F02322
:1016D000C2F34042C0F600039A5C4843B0FBF2F00C
:1016E000D9F8001043F6D822C1F30311C0F6000266
:1016F000515C40F20C0220FA01F140F20800C2F203
:1017000000000068C2F200021160FFF78FFE0020A7
:1017100001B0BDE8F083000040F20C0041F204018A
:10172000C2F20000C4F202010068096843F6E82230
:10173000C1F30221C0F60002515CC84070470000AE
:1017400040F20C0041F20401C2F20000C4F20201B6
:101750000068096843F6E822C1F3C221C0F600021E
:10176000515CC84070470000002804BF012070474A
:101770002DE9F04182B00446007841F20006C0072E
:10178000C4F202060CD0706800F00C00042840F08F
:1017900081803068800303D56068002800F04E81A6
:1017A000207880071BD5706810F00C0F09D0706886
:1017B00000F00C00082840F08B807068C00300F136
:1017C00087803068800703D52069012840F0368182
:1017D0003068616920F0F80040EAC100306020788C
:1017E000000713D4207840072CD4E569002D00F0C1
:1017F0002081706800F00C00082840F0AF80012DB7
:1018000040F00C81012002B0BDE8F081A069002801
:1018100000F08C800020C4F242200121C0F8801426
:10182000FFF7D4F8054600BF706A800700F1BA8060
:10183000FFF7CCF8401B0228F6D9032002B0BDE820
:10184000F08100BFF0695FEAC00808D4F06940F099
:101850008050F061F06900F080500090009847F2ED
:101860000007C4F200073868C0054DD4386840F45A
:1018700080703860FFF7AAF8054600BF3868C005D9
:1018800042D4FFF7A3F8401B6428F7D9032002B025
:10189000BDE8F081706800F00C00082803D1706882
:1018A000C0033FF576AF6068002800F00981B0F50D
:1018B000A02F00F01D81B0F5803F00F01D81306841
:1018C00020F480303060306820F4802017E100BFC1
:1018D0002069002840F20000C4F2422000F08C8011
:1018E00001210160FFF772F8054600BF30688007EC
:1018F0003FF56EAFFFF76AF8401B0228F6D90320C8
:1019000002B0BDE8F08100BFE068002800F09A80D6
:10191000052800F0B180012800F0B280306A20F084
:1019200001003062306A20F00400ACE00020C4F214
:1019300042200021C0F88014FFF748F8054600BF98
:10194000706A80077FF54EAFFFF740F8401B022812
:10195000F6D9032002B0BDE8F08100BF0027C4F231
:10196000422700203866FFF731F8022D05460DD1D9
:101970003068800140F1D680FFF728F8401B02282C
:101980004FF00300F4D902B0BDE8F0813068800167
:101990004FD5FFF71BF8401B02284FF00300F5D985
:1019A000F1E700BF40F20C00C2F20000006844F60C
:1019B000D351C1F26201A0FB0101480A019000BFAE
:1019C00000BF0198411E002801913FF40BAF00BFFA
:1019D0000198411E002801913FF404AF00BF019817
:1019E000411E002801913FF4FDAE00BF0198411E49
:1019F00000280191E4D1F5E600210160FEF7E6FF41
:101A0000054600BF306880077FF5E9AEFEF7DEFFD0
:101A1000401B02284FF00300F4D9B4E77068216A34
:101A200000F480328A4209D1616A00F47010884261
:101A300004D1002002B0BDE8F08100BF012002B057
:101A4000BDE8F081306A20F001003062306A20F099
:101A500004003062FEF7BAFF054641F2883700BF46
:101A6000306A800722D5FEF7B1FF401BB8424FF025
:101A70000300F5D987E700BF306A40F00400306208
:101A8000306A40F001003062FEF7A0FF054641F2E7
:101A9000883700BF306A800708D4FEF797FF401BE5
:101AA000B842F7D9032002B0BDE8F081B8F1000FC9
:101AB0003FF59BAEF06920F08050F06195E600BFE5
:101AC000306820F480303060306820F4802030604E
:101AD000FEF77CFF054600BF306880037FF560AEEF
:101AE000FEF774FF401B64284FF00300F4D94AE767
:101AF000306840F480203060306840F480303060DE
:101B0000FEF764FF054600BF306880033FF548AE2E
:101B1000FEF75CFF401B6428F6D9032002B0BDE845
:101B2000F08100BF206AB0F5803F05D17168A268DE
:101B300021F40031114371607168626A21F47411FB
:101B400011430843706001203866FEF73FFF0446EA
:101B5000306880013FF56DAFFEF738FF001B0228AB
:101B60004FF00300F4D90EE7411E0020B0EB116FD7
:101B70001CBF012070474EF21002CEF200025160ED
:101B80004EF62351CEF20001F0230B700721906036
:101B900011607047704700007047000090F83C20CB
:101BA000012A4FF0020242D010B580F83D200268B1
:101BB000D2F804E0D2F808C00C682EF0700323437A
:101BC00040F6FF34C4F20004A242536010DCB2F1CC
:101BD000804F1FD040F20043C4F200039A4219D054
:101BE00040F60003C4F200039A4213D017E000BF8E
:101BF00040F60043C4F200039A420BD043F2004384
:101C0000C4F201039A4205D042F60043C4F2010334
:101C10009A4204D149682CF0800319439160012154
:101C2000002280F83D1080F83C20BDE810401046AE
:101C300070470000002804BF0120704710B504461B
:101C400090F83D0028B9002084F83C00204600F0C0
:101C500085F8022084F83D00206840F6FF330268D2
:101C6000C4F2000343F2004C9842C4F2010C21DCA0
:101C7000B0F1804F2CD040F20041C4F20001884204
:101C800026D040F60001C4F20001884220D09842DC
:101C900024DCB0F1804F2FD040F20041C4F20001AB
:101CA000884229D040F60001C4F20001884223D0C6
:101CB00026E000BF40F60041C4F20001884207D090
:101CC000604505D042F60041C4F201018842DED1F0
:101CD000A16822F070020A439842DADD40F6004122
:101CE000C4F20001884207D0604505D042F60041A9
:101CF000C4F20101884203D1216922F440720A43EF
:101D0000A36922F08001D4F804E0E2681943604539
:101D10000160C262C0F828E005D042F60041C4F27A
:101D20000101884201D16169016301214161002003
:101D300084F8461084F83E1084F83F1084F8401070
:101D400084F8411084F8421084F8431084F8441059
:101D500084F8451084F83D1010BD00000068B0F113
:101D6000804F18BF704780B582B041F21C00C4F2AA
:101D700002000168002241F00101016000680021B9
:101D800000F00100019001981C20FFF7A7FB1C2028
:101D900002B0BDE88040FFF78FBB000090F83D1017
:101DA00001291CBF01207047022180F83D10006806
:101DB00040F6FF32C168C4F20002904241F00101D6
:101DC000C1600FDCB0F1804F1ED040F20041C4F280
:101DD0000001884218D040F60001C4F20001884298
:101DE00012D018E040F60041C4F2000188420BD046
:101DF00043F20041C4F20101884205D042F600419D
:101E0000C4F20101884206D1816801F00701062968
:101E100004BF00207047016841F00101016000200B
:101E20007047000090F83C20012A4FF0020200F0B9
:101E3000C58080B580F83D20D0F800C04FF677729D
:101E4000DCF8083023EA0202CCF808200B684F2B9C
:101E500028DC1F2B44DD202B45D0302B43D0402BDA
:101E600040F0AE80D1F804E0C968DCF82030DCF83E
:101E7000202022F00102CCF82020DCF8182022F0EB
:101E8000F00242EA011123F00A0242EA0E02CCF803
:101E90001810CCF82020DCF8081041F0470121F0A0
:101EA000300180E06F2B27DDB3F5005F48D0B3F53C
:101EB000805F7AD0702B40F08380D1E901E3C9685C
:101EC000DCF8082043EA0E0322F47F4243EA0121B2
:101ED0001143CCF80810DCF8081041F0770162E0FB
:101EE0000BB1102B6CD1DCF8081021F070011943F4
:101EF00041F0070157E000BF502B35D0602B5FD178
:101F0000D1F804E0C968DCF82030DCF8202022F0A9
:101F10001002CCF82020DCF8182022F4704242EAAB
:101F2000013123F0A00242EA0E12CCF81810CCF8CE
:101F30002020DCF8081041F0670121F0100132E0A8
:101F4000D1E901E3C968DCF8082043EA0E0322F472
:101F50007F4243EA01211143CCF80810DCF8081055
:101F600041F480411FE000BFD1F804E0C968DCF80B
:101F70002030DCF8202022F00102CCF82020DCF810
:101F8000182022F0F00242EA011123F00A0242EA8C
:101F90000E02CCF81810CCF82020DCF8081041F024
:101FA000570121F02001CCF808100022012180F80F
:101FB0003D10002180F83C10BDE88040104670477D
:101FC0000122F3E77047000010B501680446086974
:101FD000800744BFC8685FEA807039D40869400749
:101FE00044BFC8685FEA40703ED40869000744BF38
:101FF000C8685FEA007045D40869C00644BFC86875
:102000005FEAC0604AD40869C0071CBFC8685FEABD
:10201000C07051D10869000644BFC8685FEA00601B
:1020200052D40869400644BFC8685FEA406053D490
:102030000869800646BFC8685FEA806010BD6FF01F
:10204000200220460A61BDE81040FFF7A5BD00BF91
:102050006FF002000861012020778869800743D073
:102060002046FFF7AFFF45E06FF004000861022053
:102070002077886910F4407F40D02046FFF7A2FF08
:1020800042E000BF6FF00800086104202077C869B3
:1020900080073DD02046FFF795FF3FE06FF010002E
:1020A000086108202077C86910F4407F3AD02046A4
:1020B000FFF788FF3CE000BF6FF001000861204699
:1020C00000F03EF82168A5E76FF080000861204627
:1020D000FFF760FD2168A4E76FF04000086120462B
:1020E00000F072F82168A3E7204600F025F82046AA
:1020F00000F024F82168002020776FE7204600F0E8
:102100001BF8204600F01AF82168002020776CE7C1
:10211000204600F011F8204600F010F82168002059
:10212000207769E7204600F007F8204600F006F81F
:1021300021680020207766E77047000070470000A4
:10214000B0B540F22005C2F20005296840F29013B4
:10215000C2F200034A1C98422A6033D1B1F5F97FDC
:10216000D8BFB0BD40F21000291DC2F20000FEF73A
:1021700085F843F602342979C0F60004204601F0C0
:10218000C9FB6979204601F0C5FBA979204601F019
:10219000C1FBE979204601F0BDFB297A204601F018
:1021A000B9FB697A204601F0B5FBA97A204601F017
:1021B000B1FBE97A204601F0ADFB0A2001F074FC86
:1021C00000202860B0BD000070470000704700008C
:1021D00070470000B0B582B0044600680168C3686B
:1021E000426901F02F05202D03F0200506D12DB105
:1021F000204602B0BDE8B04001F07AB95FEA017C48
:102200001EBF02F0010E03F4907212EB0E0243D1D6
:10221000226BCD0618D5012A16D113F0100213D067
:102220000021019101680191416801910199406982
:1022300040063BD4A08DE18DE28D002A18BF884274
:1022400040F0F28102B0B0BD0A0640F1E78013F021
:10225000800200F0E38094F841102129F2D1A168B6
:10226000B1F5805F03D12169002900F06382216A02
:102270004A1C226209784160E18C01390A04E18438
:10228000E0D1C16821F08001C160C16841F0400126
:10229000C16002B0B0BD00BFCA0718BF13F480729E
:1022A00040F0D0804A0700F1D380D8E0E06B0168AD
:1022B00049688AB2002AC5D0A38D9A42C2D2E1856C
:1022C0008069202800F09E80206850E8030F216874
:1022D00020F4807041E80302DAB1206850E8030F6F
:1022E000216820F4807041E8030292B1206850E830
:1022F000030F216820F4807041E803024AB120688E
:1023000050E8030F216820F4807041E80302002A9E
:10231000DAD1206850E8050F216820F0010041E87B
:102320000502C2B3206850E8050F216820F00100C3
:1023300041E805027AB3206850E8050F216820F0D3
:10234000010041E8050232B3206850E8050F21681A
:1023500020F0010041E80502002ADAD11BE000BFAD
:10236000206850E8050F216820F0400041E8050290
:10237000DAB1206850E8050F216820F0400041E8FC
:10238000050292B1206850E8050F216820F0400056
:1023900041E805024AB1206850E8050F216820F0A5
:1023A000400041E80502002ADAD1202084F84200EA
:1023B00000202063206850E8030F216820F01000FF
:1023C00041E80302DAB1206850E8030F216820F0E9
:1023D000100041E8030292B1206850E8030F216821
:1023E00020F0100041E803024AB1206850E8030FD2
:1023F000216820F0100041E80302002ADAD1E06BE6
:10240000FDF786FF02206063A08DE18D401A81B246
:10241000204602B0BDE8B040FFF7D8BE49067FF5C0
:1024200011AF13F040013FF40DAFC16821F040013E
:10243000C1602021204684F8411002B0BDE8B040C0
:1024400000F0ACBB626C42F0010262644A0706D540
:10245000BEF1000F03D0626C42F0020262648A0790
:1024600006D5BEF1000F03D0626C42F00402626434
:10247000BCF1000F06D55EEA050203D0626C42F0A3
:1024800008026264626C002A3FF4DCAE890604D55F
:102490001DB1204601F02CF820684069616C00F005
:1024A000400001F00801401800F0B680206850E8B4
:1024B000030F216820F4907041E80302BAB320684A
:1024C00050E8030F216820F4907041E8030272B3D2
:1024D000206850E8030F216820F4907041E803025F
:1024E0002AB3206850E8030F216820F4907041E877
:1024F0000302002ADAD11AE0206850E8050F2168AB
:1025000020F0010041E80502DAB1206850E8050F2B
:10251000216820F0010041E8050292B1206850E8EE
:10252000050F216820F0010041E805024AB120684A
:1025300050E8050F216820F0010041E80502002A5B
:10254000DAD1206B012824D1206850E8030F2168DC
:1025500020F0100041E80302DAB1206850E8030FD0
:10256000216820F0100041E8030292B1206850E891
:10257000030F216820F0100041E803024AB12068EF
:1025800050E8030F216820F0100041E80302002A00
:10259000DAD1202084F842000020206320684069BE
:1025A000400640F1C180206850E8050F216820F006
:1025B000400041E80502DAB1206850E8050F2168C3
:1025C00020F0400041E8050292B1206850E8050F74
:1025D000216820F0400041E805024AB1206850E837
:1025E000050F216820F0400041E80502002ADAD1F9
:1025F000E06B002800F0988043F2E541C0F600014E
:102600004163FDF7A9FE00283FF41CAEE06B416B6F
:1026100002B0BDE8B04008472046FFF7D9FD0020D2
:10262000606402B0B0BD00BF401A00BF216851E82D
:10263000031F226821F4907142E80313BBB32168A1
:1026400051E8031F226821F4907142E8031373B329
:10265000216851E8031F226821F4907142E80313B6
:102660002BB3216851E8031F226821F4907142E8DE
:102670000313002BDAD11AE0216851E8051F226804
:1026800021F0010142E80513DBB1216851E8051F83
:10269000226821F0010142E8051393B1216851E855
:1026A000051F226821F0010142E805134BB12168A2
:1026B00051E8051F226821F0010142E80513002BB3
:1026C000DAD1202184F8421000212163216851E8E9
:1026D000031F226821F0100142E80313DBB12168D7
:1026E00051E8031F226821F0100142E8031393B15F
:1026F000216851E8031F226821F0100142E803130A
:102700004BB1216851E8031F226821F0100142E813
:102710000313002BDAD1022281B22046626302B099
:10272000BDE8B040FFF752BD204602B0BDE8B04062
:10273000FFF74EBD216A31F8022B6FF35F22426032
:10274000216299E5002804BF0120704710B50446B6
:1027500090F8410028B9002084F84000204600F09D
:1027600063F8242084F841002068D4E90212C36889
:1027700023F40053C360036923F440531A430261F6
:10278000D4E904231143C268194341F20C639A430C
:102790001143C1604169A26921F44071114343F6BC
:1027A0000002C4F201029042416103D0FEF7B4FF7F
:1027B00002E000BFFEF7C4FFD4E90023192148431B
:1027C0009900B0FBF1F048F21F5CC5F2EB1CA0FBD6
:1027D0000C314FF69C734909C0F6FF7301FB0300EF
:1027E000322303EB0010A0FB0C03F02000EA53108F
:1027F00000EB0110C3F343110844906010692021DD
:1028000020F490401061506920F02A005061D06897
:1028100040F40050D0600020606484F8411084F8D7
:102820004210606310BD00002DE9F04186B040F613
:1028300000050446C4F20105006805F54051002773
:102840008842049702D006B0BDE8F08141F218003A
:10285000C4F20200016802AE41F4804101600168E7
:1028600040F2440801F48041019101990168C4F2E9
:10287000020841F0040101600068314600F00400E4
:10288000019001984FF40070029002200390032001
:1028900005902846FDF794FF4FF48060CDE90207CC
:1028A000284631460497FDF78BFF40F2B40508F146
:1028B0001400C2F200058026C5E900072846C5E9D4
:1028C0000276C5E90477C5E90677FDF729FF0028F8
:1028D00018BFFDF717FDE5636C6240F2F805C2F220
:1028E000000510200021C5E900802846C5E9021630
:1028F000C5E90411C5E90611FDF712FF002818BF4C
:10290000FDF700FD252000210022A5636C62FEF783
:10291000E5FD2520FEF7D0FD06B0BDE8F081000002
:10292000704700002DE9F04381B0044690F8410063
:10293000202840F0B180884600294FF0010000F0C7
:10294000D6801646002A00F0D28000206064212044
:102950001D4684F84100FEF739F8A684E684A16894
:102960000646B1F5805F03D12069002800F0988009
:1029700047464FF00008E18C2068002900F096805F
:1029800005F101090BE000BF47B317F8011B4160D7
:10299000E18C0139E184E18C002900F08780016835
:1029A0000906F1D4B9F1000F0AD0EDB1FEF70EF827
:1029B000801BA84218D8206801680906F6D5E3E70D
:1029C00001680906E0D4016809065CBF01685FEA96
:1029D0000161D9D401680906F2D5D5E738F8021BA0
:1029E00000276FF35F21D2E7206850E8030F2168CA
:1029F00020F4D07041E80302BAB3206850E8030F16
:102A0000216820F4D07041E8030272B3206850E8D6
:102A1000030F216820F4D07041E803022AB3206834
:102A200050E8030F216820F4D07041E80302002A27
:102A3000DAD11AE0206850E8050F216820F0010083
:102A400041E80502DAB1206850E8050F216820F05E
:102A5000010041E8050292B1206850E8050F2168A5
:102A600020F0010041E805024AB1206850E8050F56
:102A7000216820F0010041E80502002ADAD1202077
:102A800084F8410084F84200002084F840000320CC
:102A900001B0BDE8F08300BF022001B0BDE8F083C3
:102AA0000027E18C206800297FF46AAF016849069D
:102AB00019D4FDB1691C0DD10168490613D4016810
:102AC00049065CBF01685FEA41610CD401684906B0
:102AD000F2D508E0FDF77AFF801BA8420AD82068EB
:102AE00000684006F6D5202084F84100002001B09F
:102AF000BDE8F083206850E8030F216820F4D0700F
:102B000041E80302002A3ED0206850E8030F216804
:102B100020F4D07041E80302AAB3206850E8030F04
:102B2000216820F4D07041E8030262B3206850E8C5
:102B3000030F216820F4D07041E80302002AD9D1A4
:102B400021E000BF206850E8050F216820F0010057
:102B500041E80502002A3FF492AF206850E8050FD3
:102B6000216820F0010041E80502002A3FF487AF08
:102B7000206850E8050F216820F0010041E80502B7
:102B8000002A3FF47CAF206850E8050F216820F050
:102B9000010041E80502002AD4D170E77047000027
:102BA000FEE7000040F23C10C2F20000FDF718BF43
:102BB00040F23C10C2F20000FDF7BCBF10B581B07E
:102BC00000210091406A40F20C01C2F2000190F82D
:102BD0003DC009684BF28952C908C1F2F842A1FB15
:102BE0000212110A232251430091009911B3009956
:102BF000013900910168096889051FD50099C9B19B
:102C000000990139009101680968890516D5009974
:102C100081B10099013900910168096889050DD5D4
:102C2000009939B100990139009101680968890555
:102C3000DBD403E0016C41F020010164446B4FF0F0
:102C4000000E002C1CBF0021A162816B00291CBF5B
:102C500000228A620268002C136823F480631360E8
:102C6000A0F82AE018BFC4F834E000291CBF0023F4
:102C70004B63116821F00101116090F83D1060294B
:102C80000CD1202180F83D10002180F83E10016415
:102C900001B0BDE81040FDF79FBE00BF0CF0280159
:102CA000282911D1116841F001011160116841F426
:102CB0008061116000210163282180F83D1001B07E
:102CC000BDE81040FEF756BA202180F83D100021E3
:102CD00080F83E1001B0BDE81040FEF74BBA00008E
:102CE00010B5044690F83D1090F83E00B0F1100287
:102CF00018BF0122403818BF0120024208BF222914
:102D000034D001F0280028283AD100202063282060
:102D100084F83D0020684168090542D5416821F4E6
:102D200000614160606B90F82110012958D1A06BBF
:102D300042F6BD31C0F600014163FDF70DFB0028EE
:102D400061D020684169490606D50069616A08704A
:102D5000616A206801316162016821F0010101604E
:102D6000202084F83D00A06B4BE000BF2068026883
:102D700022F4006202604268120505D50CE000BF33
:102D800020684268120507D4602905D0202184F804
:102D90003D10002184F83E1000212163416809059F
:102DA000BCD494F83D10602950D1202184F83D1006
:102DB000002121644169490606D50069616A0870ED
:102DC000616A206801316162016821F001010160DE
:102DD0002046FDF701FE206C000717D11BE000BF65
:102DE00042F6BD31C0F600014163FDF7B5FA50B1BE
:102DF0002168606B0A6822F001020A60202184F8D1
:102E00003D10416B8847206C000704D02068416862
:102E100021F4E061416094F83D00216C490758BFFE
:102E200010BD282810D10020CFF6FF70E0620021ED
:102E30002020216384F83D00204684F83E10BDE840
:102E40001040FEF74BBA00BF10BD00BF41694906F4
:102E500005D50069616A0870606A013060622046C9
:102E6000FEF788F9206C0007D0D1D4E7C16A428D03
:102E7000042A07D10168426A4B6823F480634B60DF
:102E8000096911E0428D032A16D1026802295368AC
:102E900023F48063536005D0042903D0116821F422
:102EA000806111601169426A1170416A01314162A9
:102EB000418D013941857047428D022A12D1013975
:102EC0000F2919D8DFE801F008121812181818187D
:102ED000181818181818180801680A6822F480626F
:102EE0000EE000BF0168426ACAE700BF01680A68D5
:102EF00042F4806204E000BF01680A6842F4007294
:102F00000A600969426A1170416A02684B1C436297
:102F1000438D013B438512694A70416A0268013161
:102F20004162418D01394185516821F44071516000
:102F3000202180F83D1090F83E200021402A80F8A2
:102F40003E1003D10163FEF7CFB900BF1221016328
:102F5000FEF7C6B981B090F83D1022290FD1418DFE
:102F600004290FD30168426A09691170416A01316D
:102F70004162418D01394185418D03295ED001B007
:102F8000704700BFC26A012958D8022A56D00021D2
:102F9000009140F20C01C2F2000109684BF2895223
:102FA000C908C1F2F842A1FB0212110A01EB81012A
:102FB00000910099013900910099002946D00168DB
:102FC0000A6892051AD50099013900910099E9B370
:102FD00001680A68920511D500990139009100999C
:102FE000A1B301680A68920508D5009901390091DA
:102FF000009959B301680A689205DAD40A6822F484
:1030000080620A604A6822F4E0624A600969426AA2
:103010001170416A01314162418D013941852021A0
:1030200080F83D1090F83E200021402A80F83E10A4
:1030300028D1016301B0FEF757B900BF00684168AD
:1030400021F48061416001B0704700BF016C41F024
:10305000200101640168426A4B6823F4E0634B601D
:1030600009691170416A01314162418D013941851F
:10307000202180F83D10002180F83E1001B0FEF7BD
:1030800079B800BF1221016301B0FEF729B9000031
:10309000C16A90F83D20212A18BF7047428D4AB17D
:1030A000416A026811F8013B13614162418D0139A7
:1030B0004185704711F5803F18BF082918D1016874
:1030C0004A6822F4E0624A600A6842F400720A60C8
:1030D00000212022016380F83D2090F83E2080F8F6
:1030E0003E10402A08BFFEF701B9FEF7FBB800BF4B
:1030F0002029E4D001684A6822F4E0624A60112184
:103100000163002180F83E10202180F83D10FEF779
:10311000E9B8000090F83D1090F83EC0C26A038DF7
:10312000002B08BF212919D0212905D0BCF1400F5F
:1031300008BF222900D07047418D69B390F83E1036
:10314000402908BF00F040B8416A026811F8013B0D
:1031500013614162418D01394185704712F5803F0D
:1031600018BF082A1ED101684A6822F4E0624A604A
:103170000A6842F400720A6000212022016380F88C
:103180003D2090F83E2080F83E10402A08BFFEF710
:10319000ADB8FEF7A7B800BF0068416821F48061B0
:1031A00041607047202ADED001684A6822F4E0625C
:1031B0004A6011210163002180F83E10202180F82F
:1031C0003D10FEF78FB8000090F83D10026D5AB127
:1031D000026D012A14D10168826CD2B20A61016DBC
:1031E00001310165704700BFC26C816C012A15D1A5
:1031F0000268C9B21161016D02310165704700BFFB
:10320000026D022A12D1222918D101680A6842F4FB
:1032100080720A60016D0131016570470268C1F377
:1032200007211161016D0131016570470068416935
:10323000090644BF00210161704700BF428D5AB1A9
:10324000212909D1416A026811F8013B13614162E9
:10325000418D013941857047428D002A08BF2129DF
:10326000EAD101684A6822F4E0624A600A6842F4DE
:1032700000720A6000212022016380F83D2080F85E
:103280003E10FEF733B8000080B582B041F2140062
:10329000C4F202000168002241F0010101600068EF
:1032A000002100F00100019001980E20FEF716F9B0
:1032B0000E20FEF701F90F2000210022FEF70EF983
:1032C0000F20FEF7F9F8102000210022FEF706F982
:1032D0001020FEF7F1F8112000210022FEF7FEF881
:1032E000112002B0BDE88040FEF7E6B870B584B0AA
:1032F00041F21800C4F20200016840F6004441F0B7
:10330000080101600168C4F2010401F008010091A4
:1033100000990168002241F0040101600068012168
:1033200000F0040000900098204601250026FDF7DB
:1033300047FB0220039069462046CDE900550296DE
:10334000FDF73EFA04B070BD80B540F23C1045F286
:103350000041C2F20000C4F2000141F680220023C5
:103360004FF4804CC0F2060280E80E00C0E9033C36
:10337000C0E90533C0E90733FDF7FEFE002808BFAA
:1033800080BDBDE88040FCF7BDBF000080B586B0C1
:1033900040F290100021C2F200004FF0804241F64E
:1033A0001F434FF0090C0591CDE90311CDE9001140
:1033B000C0E90023C0E9021C01618161FEF73AFC0B
:1033C000002818BFFCF79EFF4FF48050029040F297
:1033D0009010C2F2000002A9FEF724FD002818BFD9
:1033E000FCF790FF40F29010C2F200006946FEF731
:1033F000D5FB002818BFFCF785FF06B080BD000094
:1034000080B540F2D81043F60001C2F20000C4F2C9
:10341000010100234FF00C0C4FF4E13280E80E0064
:10342000C0E90333C0E905C3C361FFF78BF9002886
:1034300008BF80BDBDE88040FCF764BFFEE7000028
:10344000FEE7000070470000704700002DE9F043E0
:1034500085B041F21800C4F20200016840F6004451
:1034600041F0040101600168C4F2010401F00401AB
:10347000019101990168012241F004010160006895
:10348000402100F0040001900198204640254FF0B3
:103490000109FDF795FA2046802101224FF08008AE
:1034A000FDF78EFA019501AD112703262046294626
:1034B000CDE902790496FDF783F920462946CDE946
:1034C0000187CDE90396FDF77BF905B0BDE8F083F0
:1034D000FDF78ABF7047000040F29010C2F2000072
:1034E000FEF772BD406A0021C185C184FEF770BE3F
:1034F00081B090F84210222921D183680246B3F5A9
:10350000805F09D152F8281F52F8183C002B63D075
:1035100003685B680AE000BF52F8281F13B903690B
:10352000002BF5D003685B6803F07F030B70116814
:1035300001311160C18D01390A04C18502D001B089
:10354000704700BF0168CA6822F02002CA60CA68DA
:1035500022F48072CA604A6922F001024A61202185
:1035600080F8421000214163026B012A3CD10163C3
:10357000016851E8031F026821F0100142E80313BB
:10358000DBB1016851E8031F026821F0100142E835
:10359000031393B1016851E8031F026821F0100181
:1035A00042E803134BB1016851E8031F026821F0A0
:1035B000100142E80313002BDAD101680A68D20631
:1035C00006D5002200920A6800924968009100998D
:1035D000818D01B0FEF7FABD026852686FF35F2279
:1035E00021F8022B8162A5E701B0FFF799B900002D
:1035F00040F2D810C2F20000FEF7ECBDFEE700007A
:1036000080B582B0019040F2D810C2F2000001A94A
:1036100001224FF6FF73FFF785F9019802B080BDD4
:1036200090B0FDF7EFFE00240120CDE90B44CDE979
:10363000094406900A904FF4E0104FF480310225BF
:103640000F9006A8CDE90714CDE90D51FEF78CF8CF
:1036500020B1EFF3108072B6FEE700BF0F20CDE976
:1036600001054FF48060CDE9040401A80221039410
:10367000FDF770FF20B1EFF3108072B6FEE700BFD8
:10368000FFF734FEFFF700FEFFF7BAFEFFF77EFEFE
:10369000FFF75AFEFFF7DAFE40F29010C2F2000088
:1036A000FEF77CFBFCF7D0FD02A000F003FA00BFA0
:1036B000FEE700BF726561647900000080B50246D4
:1036C00040F60040C4F201004021FDF779F90A20DC
:1036D000BDE88040FCF790BD10B540F60040C4F254
:1036E00001008021FDF766F904460A20FCF784FDFD
:1036F000204610BD80B5024640F60040C4F20100ED
:103700008021FDF75DF90A20BDE88040FCF774BD1B
:10371000F0B581B0C268036804460D460120114629
:103720009847D4E90221012090476168E068884702
:10373000D4E90221064600209047D4E90221012065
:1037400090476168E0688847D4E902210746002075
:103750009047D4E90221012090476268E068B100F7
:1037600041EA47069047D4E9022140EA06070020D3
:103770009047D4E90221012090476168E0688847BA
:10378000D4E90221064600209047D4E90221012015
:1037900090476268E068B90041EA46069047D4E97C
:1037A000022140EA060700209047D4E902210120C7
:1037B00090476168E0688847D4E902210646002006
:1037C0009047D4E90221012090476268E068B9007F
:1037D00041EA46069047D4E902210643002090477B
:1037E000D4E90221012090476168E0688847D4E964
:1037F000022140EA4606002090472268E1682846F8
:103800009047D4E9022101209047D4E90221002009
:103810009047F0B201B0F0BDB0B5C268036804468D
:103820000D4601F0800011469847D4E9022101209D
:103830009047D4E90221002090472268E16805F012
:1038400040009047D4E9022101209047D4E90221A9
:10385000002090472268E16805F020009047D4E9F5
:10386000022101209047D4E90221002090472268DC
:10387000E16805F010009047D4E90221012090474B
:10388000D4E90221002090472268E16805F0080091
:103890009047D4E9022101209047D4E90221002079
:1038A00090472268E16805F004009047D4E90221BE
:1038B00001209047D4E90221002090472268E16866
:1038C00005F002009047D4E9022101209047D4E995
:1038D0000221002090472268E16805F0010090472E
:1038E000D4E9022101209047D4E902210020904729
:1038F0002268E16801209047D4E902210120904725
:103900006168E0688847D4E90221044600209047B6
:103910002046B0BD0FB4054B10B503A9044A029868
:1039200000F018F810BC5DF814FB00000136000828
:103930000000002002E008C8121F08C1002AFAD1C6
:1039400070477047002001E001C1121F002AFBD11F
:10395000704700002DE9FF4F89B09B4604460025C3
:1039600006E025280BD05A460B999047641C6D1C25
:1039700020780028F5D10DB02846BDE8F08F00274B
:10398000B8460122474900E0074314F8013F203BB5
:1039900002FA03F00842F7D120782E2819D114F842
:1039A000010F47F004072A280ED06FF02F0220786D
:1039B000A0F1300109290CD808EB880102EB410184
:1039C00000EB0108641CF2E70A98641C50F8048BB1
:1039D0000A9020780028CED0642808D0692806D024
:1039E00075281ED05A460B9990476D1C58E00A99CD
:1039F0004FF00A0901C90A91002802DA40422D213C
:103A000002E0390504D52B218DF82010012103E0B7
:103A1000F90704D02021F7E78A4608AE0DE000211F
:103A2000FAE70A994FF00A0901C90A91F7E74946EE
:103A3000FCF79AFB303106F8011D0028F7D1ADEBF9
:103A4000060000F12009780701D44FF00108C845AD
:103A500002DDA8EB090000E000208046002706E018
:103A600008A85A46C05D0B9990476D1C7F1C5745AE
:103A7000F6DB04E030205A460B9990476D1CB8F1F4
:103A80000001A8F10108F5DC05E016F8010B5A4623
:103A90000B9990476D1CB9F10001A9F10109F4DC03
:103AA000641C65E7092801000149FFF7A9BD000072
:103AB0000000002010B5044601E0FFF7A1FD14F856
:103AC000010B04490028F8D1BDE810400A20FFF797
:103AD00097BD000000000020000000000000000072
:103AE00001020304060708090000000001020304A4
:103AF000010202030405060708090A0B0C0D0E0F4C
:103B00001010256400000000283B00080000002081
:103B10002000000034390008483B00082000002045
:103B20000806000044390008000000000100000001
:103B3000100000000024F400F5360008D936000813
:083B4000BD3600080000000082
:0400000508000131BD
:00000001FF
