:020000040800F2
:10000000980600204501000829420008C53700086D
:1000100025420008A5070008E5430008000000008D
:100020000000000000000000000000003142000855
:1000300009080008000000002D420008B94200082D
:100040005F0100085F0100085F0100085F01000810
:100050005F0100085F0100085F0100085F01000800
:100060005F0100085F0100085F0100085F010008F0
:100070005F0100085F010008A9070008B507000834
:10008000C1070008CD0700085F0100085F010008F4
:100090005F0100085F0100085F0100085F010008C0
:1000A0005F0100085F0100085F0100085F010008B0
:1000B000C14200085F0100085F010008D537000851
:1000C000C93700085F0100085F0100085F010008F0
:1000D0005F010008D94300085F0100085F010008C4
:1000E0005F0100085F0100085F0100085F01000870
:1000F0005F0100085F0100085F0100085F01000860
:100100005F0100085F0100085F0100085F0100084F
:100110005F0100085F0100085F0100085F0100083F
:100120005F0100085F0100085F0100085F0100082F
:10013000DFF80CD000F0ECFA004800470944000852
:10014000980600200648804706480047FEE7FEE77D
:10015000FEE7FEE7FEE7FEE7FEE7FEE7FEE7FEE777
:10016000BD420008310100082DE9FE4F81EA030479
:1001700004F0004421F0004100944FF0000B23F004
:10018000004350EA01045ED052EA03045BD0C3F39B
:100190000A54C1F30A552C44A4F2F3340194A0FB91
:1001A0000254C1F3130141F48011C3F3130343F468
:1001B000801301FB024400FB034E840A970A44EAC1
:1001C000815447EA8357A4FB076802958D0A05FB13
:1001D00007854FEA932C04FB0C542705029D4FEA38
:1001E000065847EA1637B5EB08056EEB070C870E85
:1001F000920E47EA811742EA8312A7FB0201B6EB8F
:100200000B0164EB00042B0D43EA0C335E1844EB46
:100210001C50DA465146E7FB0201C5F313044FEACE
:100220000B3343EA14534FEA0432019C43EA0603BA
:10023000A4F10C040294009CCDE900B400F0D3F8C2
:1002400003B0BDE8F08F00200146F9E70EB5C10FFD
:1002500080EAE0700844CA07002140F233438DE889
:100260000E000A460B4600F0BEF803B000BD00F0D9
:10027000004230F000400AD0C10D01F56071C0F3BA
:10028000160042EA0151C20840071143704700209E
:100290000146704701F0004330B421F0004150EABC
:1002A000010206D00A0DA2F56072C1F31301002A03
:1002B00002DC30BC00207047440F44EAC104C10096
:1002C000E01830BC00EBC25000F047B830B50B4628
:1002D000014600202022012409E021FA02F59D4276
:1002E00005D303FA02F5491B04FA02F52844151E4A
:1002F000A2F10102F1DC30BD2DE9F05F05460020DE
:1003000092469B4688460646814640241BE0284686
:1003100041464746224600F022FA53465A46C01A42
:10032000914110D311461846224600F009FA2D1AC1
:1003300067EB01084F4622460120002100F000FA39
:1003400017EB00094E41201EA4F10104DFDC4846F2
:1003500031462A464346BDE8F09F0029A8BF7047B2
:10036000401C490008BF20F00100704710B4B0FAEB
:1003700080FC00FA0CF050EA010404BF10BC704786
:1003800049B1CCF1200421FA04F411FA0CF118BFA0
:10039000012121430843A3EB0C01CB1D4FEA00616F
:1003A0004FEA102042BF002010BC704700EBC35042
:1003B00010440029A4BF10BC7047401C490008BF6E
:1003C00020F0010010BC704710B5141E73F100043A
:1003D00008DA401C41F1000192185B411A4301D137
:1003E00020F0010010BD2DE9F04D92469B4611B161
:1003F000B1FA81F202E0B0FA80F22032904600F0C9
:100400009FF904460F4640EA0A0041EA0B015346B1
:100410005A46084313D0114653EA010019D0C8F1D7
:100420004002504600F09BF905460E46504659469C
:10043000424600F085F9084305D0012004E020463B
:100440003946BDE8F08D0020054346EAE0762C43AE
:1004500037430A986305E40AA0EB08000022FD0A6E
:1004600044EA47540A3002D500200146E9E7010575
:1004700010196941DDE9084500196941BDE8F04DF1
:10048000A2E72DE9FE4F804681EA0300C00F0C462B
:10049000009021F0004123F00045B8EB0200A94193
:1004A00005D24046214690461C460B46024623F0A4
:1004B0000040104347D0270DC7F30A00C3F30A5189
:1004C0000290401A019040286BDAC3F3130040F405
:1004D000801B0098924620B10023D2EB030A63EB05
:1004E0000B0B01985946C0F14002504600F028F924
:1004F00006460D4650465946019A00F040F910EB69
:1005000008006141002487EA115284EAE7731A4324
:1005100040D0009A62B3019A012A4FEA075215DCD3
:10052000001B61EB02014FF0004202EA0752CDE9E5
:100530000042001C41F5801132462B46FFF753FF65
:1005400003B0BDE8F08F40462146F9E7001B61EBA0
:100550000201001C41F5801300185B412018A2F530
:10056000001747EB030140EAD570B6196D4111E061
:100570006D084FEA360645EAC0754FEA0752001B80
:1005800061EB0201001C41F5801149084FEA30007F
:100590000019514132462B4603B0BDE8F04FFFF73A
:1005A00013BF0098012240000023D0EB020263EB4E
:1005B000E073009821464FEAE074B8EB000061EB6D
:1005C0000401E9E783F000435BE781F0004158E76D
:1005D0002DE9F04D81EA030404F0004B21F00045C1
:1005E00014464FF0000A23F0004150EA050220D0E3
:1005F00054EA01021DD0C5F30A570246C5F313039E
:10060000C1F31300C1F30A5640F4801543F480137C
:10061000A7EB0608101BD64608F2FD3873EB050061
:1006200002D308F1010801E092185B41B8F1000F14
:1006300003DA00200146BDE8F08D00204FF4801160
:10064000064684460EE0171B73EB050705D3121B05
:1006500063EB050306434CEA010C49084FEA3000FE
:1006600092185B4150EA0107EDD152EA030012D023
:1006700082EA040083EA0501084305D0101BAB4160
:1006800006D20122002306E000224FF0004302E0E0
:100690006FF0010253101AEB06004CEB085110EBFF
:1006A0000A0041EB0B01BDE8F04DFFF78DBEC1F331
:1006B0000A52C1F3130140F2FF3341F480119A4210
:1006C00002DA00200146704740F233439A42A2F218
:1006D000334202DC524200F042B800F031B8000070
:1006E00030B5041E71F1000404DB4FF000444042B9
:1006F00064EB0101141E73F1000405DB1C464FF08E
:100700000043524263EB0403994208BF904230BD5C
:100710001CB509480090094801900546009C06E078
:10072000E06840F0010394E8070098471034AC42B9
:10073000F6D3FFF701FD0000504E0008704E000890
:10074000202A04DB203A00FA02F100207047914091
:10075000C2F1200320FA03F3194390407047202A86
:1007600004DB203A21FA02F00021704721FA02F35B
:10077000D040C2F120029140084319467047202A18
:1007800006DBCB17203A41FA02F043EAE07306E0B9
:1007900041FA02F3D040C2F12002914008431946C9
:1007A00070470000FEE7000040F2DC00C2F20000EB
:1007B00000F00AB940F29800C2F2000000F004B95B
:1007C00040F25400C2F2000000F0FEB840F2100007
:1007D000C2F2000000F0F8B84EF6FC50CEF2000075
:1007E0000168C90148BF7047016841F0807101602C
:1007F00041F20000CEF2000000214160016841F0AA
:10080000010101607047000070470000EFF31080A5
:1008100072B600BFFEE7000040F27410C2F20000A2
:100820000068406A00B2704780B5FFF70FFD4AF2DA
:10083000107249F28F63CFF6DD12C3F62473FFF70F
:1008400093FCFFF727FD80BD014690F821000228A8
:1008500016D10868D1E90FC3026822F00E020260C7
:10086000026822F001020260012000FA03F2CCF8D3
:10087000042081F821000020002281F82020704708
:10088000042088630120002281F8202070470000A6
:1008900090F82110022927D1026840F2040C136855
:1008A000C4F2020C23F00E03136013680CF17C01F8
:1008B0008A4223F0010111601AD940F20841C4F2C2
:1008C00002018A4248D040F21C41C4F202018A422D
:1008D00046D040F23041C4F202018A4244D14FF482
:1008E0008073CCF800345CE0042181630120704700
:1008F0004321C4F202018A420EDD6B21C4F20201DF
:100900008A421BDC4421C4F202018A423CD05821B5
:10091000C4F202018A4233E00821C4F202018A4291
:1009200036D01C21C4F202018A4237D03021C4F2F1
:1009300002018A4224D14FF4807230E06C21C4F26B
:1009400002018A4226D08021C4F202018A4217D1D4
:100950004FF0807223E000BF0123CCF8003420E088
:100960001023CCF800341CE00CF588614FF4803380
:100970008A4208BF4FF48053CCF8003411E000BF26
:100980004FF480320BE000BF4FF4805207E000BF0D
:10099000012204E04FF4801201E000BF1022CCF8E5
:1009A0000020012180F82110426B002180F82010E6
:1009B00022B180B590470021BDE8804008467047CD
:1009C00090F821007047000010B5D0E90FE3D0F88F
:1009D00000C0DEF80020DCF80010DA4054072DD506
:1009E00011F004042AD0DCF80010890605D4DCF8E4
:1009F000001021F00401CCF800100422C4F202021D
:100A000002F17C018C454BD940F20841C4F202014D
:100A10008C4500F0AF8040F21C41C4F202018C45CD
:100A200000F0AC8040F23041C4F202018C4540F04D
:100A3000A9804FF48061C2F80014F3E0940745D513
:100A400011F0020442D0DCF80010890608D4DCF86A
:100A5000001021F00A01CCF80010012180F82110CB
:100A60000422C4F2020202F17C018C454CD940F20E
:100A70000841C4F202018C4500F0B48040F21C41F0
:100A8000C4F202018C4500F0AF8040F23041C4F264
:100A900002018C4540F0AA804FF40071AEE000BF27
:100AA0004321C4F202018C4544DD6B21C4F20201F2
:100AB0008C4551DC4421C4F202018C4500F0A28037
:100AC0005821C4F202018C4568E000BF120740F1D2
:100AD000C18011F0080108BF10BDDCF8001021F042
:100AE0000E01CCF80010012101FA03F2CEF8042027
:100AF000816380F82110016B0022002980F82020FA
:100B000040F09280A6E000BF4321C4F202018C4570
:100B100048DD6B21C4F202018C4555DC4421C4F24E
:100B200002018C4500F084805821C4F202018C45FA
:100B300072E000BF0821C4F202018C4566D01C217E
:100B4000C4F202018C456BD03021C4F202018C4505
:100B500024D14FF4806164E06C21C4F202018C4521
:100B600056D08021C4F202018C4517D14FF080612C
:100B700057E000BF0421C2F8001453E04021C2F83E
:100B800000144FE002F588634FF480219C4508BFB4
:100B90004FF48041C2F8001444E000BF4FF48021BC
:100BA0003FE000BF0821C4F202018C4544D01C2163
:100BB000C4F202018C4545D03021C4F202018C45BB
:100BC0002AD14FF400713EE06C21C4F202018C4541
:100BD00034D08021C4F202018C451DD14FF0007148
:100BE00031E000BF022109E0202107E002F588631F
:100BF0004FF400319C4508BF4FF40051C2F8001477
:100C000022E000BF4FF480410BE000BF042108E068
:100C10004FF4800105E000BF4FF4003113E000BF46
:100C200040211160C16AA9B1BDE81040084700BF6A
:100C30004FF4005107E000BF022104E04FF400111F
:100C400001E000BF20211160816A0022002980F8A4
:100C50002020E9D110BD0000014600284FF001001E
:100C600008BF70472DE9F04740F2000CC4F2020CB7
:100C70000A684FF6F8330CF5816ECBF6FD737245BA
:100C800038BF03F5806303EB020E4CF6CD43CCF680
:100C9000CC43AEFB033E6FF003060CF5806506EA1D
:100CA0009E06D1E901A9D1F80C803CBF0025C4F211
:100CB0000205C1E90F56022681F82160166843F645
:100CC000F075AE4346EA0A06D1E9045746EA09063A
:100CD00046EA0806D1E906432E43374327433B4300
:100CE000136000228A6381F8210081F8202000200F
:100CF000BDE8F04770470000B0B5044600F010F9B9
:100D0000054640F20400C2F200000078611C18BFE2
:100D1000044400BF00F004F9401BA042FAD3B0BD68
:100D20002DE9F04F82B00E68002E00F0EF80A0F1A8
:100D30008042A2F58432870547EA922241F60047B5
:100D400040F2004EC4F201070625C4F2010EB8427B
:100D500008BF052500244FF001080F234FF0000ABB
:100D60004FF0000B052A38BF1546009509E000BF7B
:100D70000E680AF1010A36FA0AF204F1040400F0DE
:100D8000C58008FA0AFC16EA0C09F1D04E684FF645
:100D9000FF72C1F21002964212DC122E56D8DFE822
:100DA00006F0350B4549555555555555555555552D
:100DB0005555554D510000BFD1F80CB046E000BF6D
:100DC0004FF6FF72C1F2210296420FDC0022C1F2FF
:100DD000110296421AD00022C1F21202964215D098
:100DE0000022C1F22102964210D02FE00022C1F26F
:100DF000220296420AD00022C1F23102964205D068
:100E00000022C1F23202964220D100BF8A684AB164
:100E1000012A14BFC0F814C0C0F810C04FF0080B6E
:100E200014E000BF4FF0040B10E000BFCA6802F1ED
:100E3000080B0BE04FF0000B08E000BFCA6802F19E
:100E4000040B03E0CA6802F10C0B00BF2246064601
:100E5000B9F5807F24BF203A0436376803FA02F5DB
:100E6000AF430BFA02F23A433260CA79D2067FF5F9
:100E70007FAF41F21807C4F202073A684FF6084301
:100E800042F001023A603A68CFF6FF7302F00102C5
:100E90000192019A2AF0030272440F25D75804F0F8
:100EA0000C06B540AF43009D05FA06F63743D75010
:100EB0004E6840F20C45F202DEF8082054BF22EAE8
:100EC000090242EA0902C4F20105CEF808202A68A4
:100ED000B70254BF22EA090242EA09022A60DEF898
:100EE0000420B70354BF22EA090242EA0902CEF8FD
:100EF00004200F23DEF80020F70354BF22EA090282
:100F000042EA0902CEF8002032E700BF02B0BDE895
:100F1000F08F0000002A08BF09040161704700003B
:100F200040F29420C2F20000006870477047000051
:100F300070470000F0B581B004460068002547699D
:100F4000426894F83E1002F48076FA0508D53EB166
:100F50006FF4807242610268012542F4004202602F
:100F6000BA0505D5002E1EBF02356FF4007242612E
:100F70007A0516D5AEB1628D94F83D30D4F830C004
:100F8000202908BF002A23D06FF48062402905F190
:100F90000405426101D0102903D1016841F40071B8
:100FA0000160380506D52EB1206808356FF4006160
:100FB000416100E055B1206C40EA05012046216402
:100FC00001B0BDE8F04002F09DBC00BF01B0F0BD33
:100FD00003F0F701212909D0282B08BFBCF1210F0C
:100FE00004D06FF4806141610435DAE794F83D1074
:100FF000E26AB2F1080318BF0123203A18BF0122A8
:10100000134208BF282921D0212939D10021CFF648
:10101000FF71E16221212163202184F83D1000212C
:1010200084F83E10426822F4E06242606FF480620D
:101030004261026822F4806202604269120648BF7F
:101040000161204600F078FCABE700BF0021CFF63D
:10105000FF71E162416821F4E06141606FF48061F9
:101060004161016821F4806101600020202120633A
:1010700084F83D1084F83E00204600F0D9FB90E74C
:101080006FF4806141618CE7F0B581B00768044678
:101090007868E26A94F83E3094F83DE0402B01D045
:1010A000102B1BD1BD697E69F10745D1B2F12A4FE2
:1010B00000F06082B2F52A0F00F05C82310700F484
:1010C000007240F10981002A00F00681606B616CBA
:1010D0000028C9B2396140F0EE80EEE0216C00F4E6
:1010E000007300290CBFBD6900257E69B1073DD59D
:1010F000E3B3206C002818BFBD6994F83D0000F0F0
:101100002800282874D17868012120F48060786054
:1011100005F0040081EA900128064FF0180058BF3E
:101120000C20225A0023204684F83C3001B0BDE850
:10113000F040FFF7FDBE00BF810541D44FF0010C28
:1011400079686A0742D4090500F1148206F0440167
:10115000402940F0318110F4806000F02D8120465C
:1011600001B0BDE8F04002F007BD00BFF1064BD56D
:10117000002B49D094F83D50786820F4E060786006
:101180000020009078690090386840F001003860D5
:101190000098386820F4806038607868000540F175
:1011A000508105F0F7002646222840F0298156F8A4
:1011B000380F0168496826F80E1C36F80E1C27E126
:1011C000E06AB0F52A0F51D1012054E0090500F181
:1011D000D18106F08401802940F0FE8010F4806007
:1011E00000F0FA80204601B0BDE8F04002F0A4BD56
:1011F0000020009079690091B9690091009984F804
:101200003C0001B0F0BD00BF0EF0F701212940F015
:10121000958006F08401802940F0648110F480609C
:1012200000F0608194F83D00618D002900F0A281FA
:10123000616A11F8012B3A616162618D0139618542
:10124000618D002908BF292840F094817868282101
:1012500020F48060786021202063204684F83D10CF
:1012600001B0BDE8F04000F067BB00BFE06AB0F13C
:101270002A4F01D10820E06294F83E0040280BD1AB
:10128000206D616C002801F0FE0018BF40F00100E5
:10129000386101B0F0BD00BF2069B0F5804F7BD14F
:1012A00094F83D00616C212801F0FE0118BF013166
:1012B0003961606B08B1806A38B9A06B002800F012
:1012C0005981806A002800F05581786840F40060F8
:1012D000786001B0F0BD00BF4FF0010CB1078CEA9F
:1012E000522C7FF52DAF002A3FF42AAF94F83E3000
:1012F000E06A226B94F83D10222940F0FF80216DB6
:10130000002908BF402B00F0F980216D002940F032
:1013100033812169B1F5404F40F02E8100200090CB
:1013200078690090B86900900098386840F480703F
:101330003860206D0130206501B0F0BD06F0440139
:10134000402940F0E58010F4806000F0E18094F8DE
:101350003D00618D002900F00D813969626A1170CC
:10136000616A01316162618D01396185618D002998
:1013700008BF2A2840F0FE802068416821F480617F
:101380004160222028212063204684F83D1001B0CE
:10139000BDE8F04000F0CEBA206D002800F0C88013
:1013A000206D012840F0E680606C062101EAD01033
:1013B000F130386101B0F0BD06F00400012181EA8E
:1013C000900050EA0C0040F0D580204601B0BDE806
:1013D000F04002F05DBB00BF06F00400012181EA8D
:1013E000900050EA0C0040F0C580BEF1210F40F0A3
:1013F000B980204601B0BDE8F04002F05BBC00BF00
:1014000056F8340F0168496826F80A1C36F80A1C99
:1014100019B1216C41F004012164796821F4006163
:101420007960FFF7CDFA01280BD0306843F2E17103
:10143000C0F600014163FFF72BFA10B13068416B31
:101440008847608D60B120684169490730D441699F
:1014500049063AD4608D18B1206C40F00400206435
:10146000206C28B1204601B0BDE8F04002F04ABA35
:101470002A2D07D100202063282084F83D00204633
:1014800000F058FA94F83D00282859D10020CFF6F2
:10149000FF70E06200212020216384F83D00204697
:1014A00084F83E1001B0BDE8F04000F0C1B900BFC3
:1014B0000069616A0870616A206801316162618D4A
:1014C0000139618541694906C4D50069616A0870BE
:1014D000606A01306062608D01386085608D00282F
:1014E000BAD1BDE7700745D5002B43D0608D0028E9
:1014F00040D0606A10F8011B396113E000200090B1
:1015000078690090B8690090009801B0F0BD00BF04
:1015100070072FD573B3608D60B33869616A087046
:10152000606A01306062608D0138608522E000BF32
:10153000606C062101EAD010F030386101B0F0BDD6
:10154000206B222818BF222D14D1002120202163D6
:1015500084F83D00204684F83E1001B0BDE8F0401C
:1015600000F0E8B9402B05D1204601B0BDE8F040BD
:1015700002F03CBC01B0F0BD618D51B1618D01291B
:1015800016D1202818BF082842D1386820F480607E
:1015900038600020009078690090B8690090009849
:1015A000386840F4007038600020206501B0F0BD5C
:1015B000618D022914D110284ED8012114228140B6
:1015C000C0F20102114247D0396841F480613960AC
:1015D0000021009179690091B969009100994AE070
:1015E000396841F480613960796809055DD5421E2A
:1015F0001F2A57D80121914048F28102C8F2000207
:1016000011424FD0786840F4805078604DE000BFC0
:1016100010F5803F0CD1386820F48060386078681D
:101620000005B6D5386820F4806038603DE000BF22
:10163000122A01D10128A8D11028F3D8012101FADA
:1016400000F01421C0F201010842EBD0386840F4E8
:101650008060386029E000BF396841F4006139607A
:101660000021009179690091B96900910099396868
:1016700021F480613960796809051DD5421E1F2A51
:101680001ED80121914048F28102C8F200021142A5
:1016900016D0786840F4805078600020206501B052
:1016A000F0BD00BF10F5803FACD0002000907869FD
:1016B0000090B869009000980020206501B0F0BD4E
:1016C00010F5803FE5D0F7E770470000002804BF21
:1016D00001207047F0B581B0044690F83D0028B96C
:1016E000002084F83C00204600F0ACF8242084F868
:1016F0003D002068016821F001010160016841F4AA
:1017000000410160016821F40041016000F0AEFA7F
:10171000636848F2A16CC0F2010C40F60011C0F2FF
:101720003D0163453CBF48F28041C0F21E01884242
:1017300002D2012001B0F0BD4DF68361C4F21B312D
:10174000A0FB01122168970CD1F804E04FF49676C3
:101750002EF03F0545EA92454D60774348F638162E
:101760000D6AC0F24106A7FB067625F03F076345E8
:1017700038BF960C721C3A430A62CA6948F2A066E6
:101780004CF6FF77C0F20106B34222EA07020BD8FB
:1017900001385B00B0FBF3F001306FF31F30042819
:1017A00098BF04201BE000BFA768013857B1192774
:1017B0007B43B0FBF3F001306FF31F3070B100F5E5
:1017C000804007E003EB4303B0FBF3F001306FF31D
:1017D0001F3018B100F5004001E000BF01201043A8
:1017E000C8610868D4E9072320F0C00010431843FB
:1017F0000860886848F2FF3204F10C0790438CCFF0
:1018000018431043A6698860C86820F0FF00384379
:101810003043C860086840F00100086000202021C3
:10182000206484F83D10206384F83E0001B0F0BDD0
:1018300070470000704700007047000070470000CC
:10184000704700002DE9F04186B0044645F20040A3
:101850002168C4F2000000278142049702D006B03C
:10186000BDE8F08141F21805C4F20205296840F292
:101870006C0841F008012960296800F5384001F042
:10188000080101910199C0210291122103910321C4
:10189000059102A9C4F20208FFF742FA686880269F
:1018A00040F400106860686840F2100500F4001011
:1018B0000190019808F11400C2F20005C5E9000783
:1018C0002846C5E90276C5E90477C5E90677FFF73A
:1018D000C3F9002818BFFEF799FFA5636C6240F2B8
:1018E0005405C2F2000510200021C5E900802846F9
:1018F000C5E90216C5E90411C5E90611FFF7ACF9FF
:10190000002818BFFEF782FF1F2000210022656318
:101910006C6200F08DF81F2000F078F82020002184
:10192000002200F085F8202000F070F806B0BDE835
:10193000F0810000704700007047000040F2040092
:1019400040F29421C2F20000C2F2000100780A685D
:10195000104408607047000080B542F20000C4F2F5
:101960000200016841F010010160032000F08CF8D2
:101970000F2000F005F800F027F8002080BD0000DF
:1019800070B540F20406C2F2000640F20C01327853
:10199000C2F200014FF47A730968B3FBF2F2044615
:1019A000B1FBF2F1084600F089FB0F2C4FF0010566
:1019B00008D838B94FF0FF3021460022002500F04A
:1019C00037F87460284670BD82B041F21800C4F246
:1019D00002000168022241F001010160016801F08A
:1019E000010101910199416841F0805141604068D5
:1019F00000F08050009000980420C4F201000168BB
:101A000062F31A61016002B070470000002848BF0D
:101A1000704700F01F01012202FA01F11C2202EAC4
:101A2000D0004EF20012CEF200028150704700004A
:101A300010B54EF60C5CCEF2000CDCF80030C3F3AF
:101A4000022E8EF00704042C28BF0424BEF10303E9
:101A50004FF0FF3E0EFA04F438BF0023A143994033
:101A60000EFA03F39A43114300F00F0200F16043B2
:101A70000901043A03F564436244002848BF02F1B7
:101A80000C03197010BD00004EF60C51CEF200018F
:101A90000A684FF6FF031A4060F30A2242F08060A2
:101AA00040F0FD7008607047002804BF01207047B7
:101AB0002DE9F04381B042F20008C4F20208044666
:101AC000D8F800000D4600F0070088420CD2D8F884
:101AD000000020F007002843C8F80000D8F80000F4
:101AE00000F00700A8426CD1206841F20409810788
:101AF000C4F2020917D5410705D5D9F8001041F401
:101B0000E061C9F80010010705D5D9F8001041F4CB
:101B10006051C9F80010D9F80010A26821F0F00156
:101B20001143C9F80010C00742D1D8F8000000F0F6
:101B30000700A8420CD9D8F8000020F0070028437D
:101B4000C8F80000D8F8000000F00700A84238D11B
:101B50002068410707D5D9F80010E26821F4E06158
:101B60001143C9F80010000708D5D9F80000216911
:101B700020F4605040EAC100C9F80000D9F8002004
:101B800002F00C00082841F20020C0F27A0051D186
:101B900044F63E63C2F38341C0F60003595CD203AE
:101BA0003CD440F60010C0F23D00484342E000BF84
:101BB000606802280AD001282AD159F8041C890338
:101BC00008D4012001B0BDE8F08300BF59F8041C1F
:101BD0008901F6D5D9F8001021F003010843C9F8AE
:101BE0000000FFF79DF9064641F28837D9F800005A
:101BF000616800F00C00B0EB810F96D0FFF790F910
:101C0000801BB842F2D9032001B0BDE8F08300BFC9
:101C100059F8041C8907D4D5DCE700BFD9F80020A7
:101C200044F63C63C2F34042C0F600039A5C48436A
:101C3000B0FBF2F0D9F8001044F62462C1F30311AE
:101C4000C0F60002515C40F20C0220FA01F140F2B1
:101C50000800C2F200000068C2F200021160FFF743
:101C60008FFE002001B0BDE8F083000040F20C00C0
:101C700041F20401C2F20000C4F2020100680968E6
:101C800044F63462C1F30221C0F60002515CC84040
:101C90007047000040F20C0041F20401C2F2000063
:101CA000C4F202010068096844F63462C1F3C2213B
:101CB000C0F60002515CC84070470000002804BF15
:101CC000012070472DE9F04182B00446007841F2CE
:101CD0000006C007C4F202060CD0706800F00C00C9
:101CE000042840F081803068800303D560680028B4
:101CF00000F04E81207880071BD5706810F00C0F23
:101D000009D0706800F00C00082840F08B807068E3
:101D1000C00300F187803068800703D5206901285F
:101D200040F036813068616920F0F80040EAC10077
:101D300030602078000713D4207840072CD4E56960
:101D4000002D00F02081706800F00C00082840F0A1
:101D5000AF80012D40F00C81012002B0BDE8F08180
:101D6000A069002800F08C800020C4F242200121EC
:101D7000C0F88014FFF7D4F8054600BF706A8007EA
:101D800000F1BA80FFF7CCF8401B0228F6D90320F7
:101D900002B0BDE8F08100BFF0695FEAC00808D476
:101DA000F06940F08050F061F06900F080500090E0
:101DB000009847F20007C4F200073868C0054DD408
:101DC000386840F480703860FFF7AAF8054600BF15
:101DD0003868C00542D4FFF7A3F8401B6428F7D940
:101DE000032002B0BDE8F081706800F00C00082804
:101DF00003D17068C0033FF576AF6068002800F03B
:101E00000981B0F5A02F00F01D81B0F5803F00F0F2
:101E10001D81306820F480303060306820F48020EC
:101E200017E100BF2069002840F20000C4F2422000
:101E300000F08C8001210160FFF772F8054600BFB9
:101E4000306880073FF56EAFFFF76AF8401B022845
:101E5000F6D9032002B0BDE8F08100BFE068002899
:101E600000F09A80052800F0B180012800F0B280CF
:101E7000306A20F001003062306A20F00400ACE0EB
:101E80000020C4F242200021C0F88014FFF748F877
:101E9000054600BF706A80077FF54EAFFFF740F838
:101EA000401B0228F6D9032002B0BDE8F08100BF34
:101EB0000027C4F2422700203866FFF731F8022DD0
:101EC00005460DD13068800140F1D680FFF728F833
:101ED000401B02284FF00300F4D902B0BDE8F081A6
:101EE000306880014FD5FFF71BF8401B02284FF0E8
:101EF0000300F5D9F1E700BF40F20C00C2F2000088
:101F0000006844F6D351C1F26201A0FB0101480A06
:101F1000019000BF00BF0198411E002801913FF4CD
:101F20000BAF00BF0198411E002801913FF404AFA0
:101F300000BF0198411E002801913FF4FDAE00BF93
:101F40000198411E00280191E4D1F5E600210160CD
:101F5000FEF7E6FF054600BF306880077FF5E9AE73
:101F6000FEF7DEFF401B02284FF00300F4D9B4E770
:101F70007068216A00F480328A4209D1616A00F4F3
:101F80007010884204D1002002B0BDE8F08100BF8B
:101F9000012002B0BDE8F081306A20F0010030621B
:101FA000306A20F004003062FEF7BAFF054641F2C5
:101FB000883700BF306A800722D5FEF7B1FF401B8B
:101FC000B8424FF00300F5D987E700BF306A40F010
:101FD00004003062306A40F001003062FEF7A0FF7A
:101FE000054641F2883700BF306A800708D4FEF703
:101FF00097FF401BB842F7D9032002B0BDE8F0813B
:10200000B8F1000F3FF59BAEF06920F08050F06111
:1020100095E600BF306820F480303060306820F4EE
:1020200080203060FEF77CFF054600BF30688003EB
:102030007FF560AEFEF774FF401B64284FF003008D
:10204000F4D94AE7306840F480203060306840F4CA
:1020500080303060FEF764FF054600BF30688003C3
:102060003FF548AEFEF75CFF401B6428F6D903201D
:1020700002B0BDE8F08100BF206AB0F5803F05D115
:102080007168A26821F40031114371607168626A5D
:1020900021F4741111430843706001203866FEF783
:1020A0003FFF0446306880013FF56DAFFEF738FF13
:1020B000001B02284FF00300F4D90EE7411E002058
:1020C000B0EB116F1CBF012070474EF21002CEF230
:1020D000000251604EF62351CEF20001F0230B7046
:1020E0000721906011607047704700007047000042
:1020F00090F83C20012A4FF0020242D010B580F83F
:102100003D200268D2F804E0D2F808C00C682EF036
:102110007003234340F6FF34C4F20004A24253602C
:1021200010DCB2F1804F1FD040F20043C4F2000334
:102130009A4219D040F60003C4F200039A4213D029
:1021400017E000BF40F60043C4F200039A420BD0F0
:1021500043F20043C4F201039A4205D042F6004321
:10216000C4F201039A4204D149682CF08003194358
:1021700091600121002280F83D1080F83C20BDE8EC
:102180001040104670470000002804BF012070472F
:1021900010B5044690F83D0028B9002084F83C00B2
:1021A000204600F085F8022084F83D00206840F6C3
:1021B000FF330268C4F2000343F2004C9842C4F2B9
:1021C000010C21DCB0F1804F2CD040F20041C4F270
:1021D0000001884226D040F60001C4F20001884286
:1021E00020D0984224DCB0F1804F2FD040F2004143
:1021F000C4F20001884229D040F60001C4F2000177
:10220000884223D026E000BF40F60041C4F200011E
:10221000884207D0604505D042F60041C4F2010172
:102220008842DED1A16822F070020A439842DADDCA
:1022300040F60041C4F20001884207D0604505D055
:1022400042F60041C4F20101884203D1216922F41F
:1022500040720A43A36922F08001D4F804E0E268E6
:10226000194360450160C262C0F828E005D042F61B
:102270000041C4F20101884201D161690163012179
:102280004161002084F8461084F83E1084F83F1025
:1022900084F8401084F8411084F8421084F8431008
:1022A00084F8441084F8451084F83D1010BD0000F7
:1022B00080B582B0006840F20041C4F2000188425B
:1022C0001AD0B0F1804F24D141F21C00C4F20200B8
:1022D0000168002241F0010101600068002100F066
:1022E0000100019001981C20FFF7A2FB1C2002B006
:1022F000BDE88040FFF78ABB41F21C00C4F2020037
:10230000016841F002010160006800F002000090E5
:10231000009802B080BD000090F83D1001291CBF5C
:1023200001207047022180F83D10006840F6FF321E
:10233000C168C4F20002904241F00101C1600FDCAB
:10234000B0F1804F1ED040F20041C4F2000188423B
:1023500018D040F60001C4F20001884212D018E003
:1023600040F60041C4F2000188420BD043F2004124
:10237000C4F20101884205D042F60041C4F20101D5
:10238000884206D1816801F00701062904BF0020B8
:102390007047016841F001010160002070470000B2
:1023A00090F83C20012A4FF0020200F0C58080B571
:1023B00080F83D20D0F800C04FF67772DCF8083086
:1023C00023EA0202CCF808200B684F2B28DC1F2BD5
:1023D00044DD202B45D0302B43D0402B40F0AE8045
:1023E000D1F804E0C968DCF82030DCF8202022F0C5
:1023F0000102CCF82020DCF8182022F0F00242EA9A
:10240000011123F00A0242EA0E02CCF81810CCF8AF
:102410002020DCF8081041F0470121F0300180E075
:102420006F2B27DDB3F5005F48D0B3F5805F7AD01E
:10243000702B40F08380D1E901E3C968DCF8082003
:1024400043EA0E0322F47F4243EA01211143CCF810
:102450000810DCF8081041F0770162E00BB1102B96
:102460006CD1DCF8081021F07001194341F007012C
:1024700057E000BF502B35D0602B5FD1D1F804E07E
:10248000C968DCF82030DCF8202022F01002CCF8FB
:102490002020DCF8182022F4704242EA013123F0B7
:1024A000A00242EA0E12CCF81810CCF82020DCF87A
:1024B000081041F0670121F0100132E0D1E901E399
:1024C000C968DCF8082043EA0E0322F47F4243EA9D
:1024D00001211143CCF80810DCF8081041F48041C8
:1024E0001FE000BFD1F804E0C968DCF82030DCF858
:1024F000202022F00102CCF82020DCF8182022F065
:10250000F00242EA011123F00A0242EA0E02CCF87C
:102510001810CCF82020DCF8081041F0570121F009
:102520002001CCF808100022012180F83D10002184
:1025300080F83C10BDE88040104670470122F3E768
:10254000002804BF012070472DE9F04F81B00446F8
:1025500090F83D008B4628B9002084F83C002046C6
:1025600000F0B0F8022084F83D00206844F2070231
:10257000816840F6FF33914381600268C4F2000332
:1025800043F2004C9842C4F2010C21DCB0F1804FC0
:102590002CD040F20041C4F20001884226D040F61F
:1025A0000001C4F20001884220D0984224DCB0F13E
:1025B000804F2FD040F20041C4F20001884229D060
:1025C00040F60001C4F20001884223D026E000BF9B
:1025D00040F60041C4F20001884207D0604505D0B2
:1025E00042F60041C4F201018842DED1A16822F026
:1025F00070020A439842DADD40F60041C4F200015D
:10260000884207D0604505D042F60041C4F201017E
:10261000884203D1216922F440720A43A36922F05F
:1026200080016268E568194360450160C5628262A5
:1026300005D042F60041C4F20101884201D161692E
:1026400001630121416182688369D0F820C0DBE920
:10265000005EDBE9027845EA020ADBF818504FF623
:10266000FF7923EA090347EA05254FF6FC47BD43F6
:10267000DBE9077643EA0803DBF810202B4343EA43
:10268000072343EA02122CF02203DBF8147043EA1A
:102690000E0342EA063243EA0713C0F808A082613B
:1026A000036284F8461084F83E1084F83F1084F8E2
:1026B000421084F8431084F83D10002001B0BDE8BA
:1026C000F08F000080B586B0014641F60000C4F2EC
:1026D0000100096800F5A05300229942059201D03B
:1026E00006B080BD41F21801C4F202010B6843F448
:1026F00000630B600B6803F400630193019B0B689C
:1027000043F040030B60096801F040010191019919
:102710004FF42061CDE9021202A90492FEF700FBFA
:102720000420C4F20100016841F0E06141F0C00101
:10273000016006B080BD000080B590F83E2090F8A2
:102740003F3090F842E090F843C004290AD0B9B96C
:10275000012A4FF0010208BFBEF1010F34D010462C
:1027600080BD00BF012B4FF0010208BFBCF1010F7B
:10277000F5D1022180F83F1080F8431000681EE078
:10278000012A4FF0010208BF012BE8D1BEF1010F71
:10279000E5D1BCF1010FE2D1022280F83E2080F8A1
:1027A0003F2080F8422080F8432091B10068016A00
:1027B00021F001010162016A41F001010162102171
:1027C0006FF0100209E000BF022180F83E1080F88F
:1027D0004210006801216FF00102036A1A40026290
:1027E000026A114301620168002241F001010160A7
:1027F000104680BD7047000010B5016804460869A6
:10280000800744BFC8685FEA807039D40869400710
:1028100044BFC8685FEA40703ED40869000744BFFF
:10282000C8685FEA007045D40869C00644BFC8683C
:102830005FEAC0604AD40869C0071CBFC8685FEA85
:10284000C07051D10869000644BFC8685FEA0060E3
:1028500052D40869400644BFC8685FEA406053D458
:102860000869800646BFC8685FEA806010BD6FF0E7
:10287000200220460A61BDE81040FFF737BC00BFC8
:102880006FF002000861012020778869800743D03B
:102890002046FFF7AFFF45E06FF00400086102201B
:1028A0002077886910F4407F40D02046FFF7A2FFD0
:1028B00042E000BF6FF00800086104202077C8697B
:1028C00080073DD02046FFF795FF3FE06FF01000F6
:1028D000086108202077C86910F4407F3AD020466C
:1028E000FFF788FF3CE000BF6FF001000861204661
:1028F00000F07AFA2168A5E76FF0800008612046B1
:10290000FFF7F2FB2168A4E76FF040000861204662
:1029100000F06CFA2168A3E7204600F025F8204675
:1029200000F0F0F92168002020776FE7204600F0E2
:102930001BF8204600F0E6F92168002020776CE7BC
:10294000204600F011F8204600F0DCF92168002054
:10295000207769E7204600F007F8204600F0D2F91A
:1029600021680020207766E77047000090F83C302F
:10297000012B04BF022070474FEAB202032A00F283
:1029800025812DE9F041DFE802F0034B95DF00BF20
:10299000036843F200461D6A1A6A25F0020522F018
:1029A00001021A621A46D3F804C052F8188F8F68D1
:1029B000D1F800E0C4F20106B34245EA070505D0AC
:1029C00042F60047C4F20107BB4205D1CF6825F0AB
:1029D0000C0527F004073D43B34205D042F60046FC
:1029E000C4F20106B34206D1D1E905672CF4407464
:1029F000264346EA070C28F0730444EA0E07C3F89E
:102A000004C09F614F6809695F631D629F6947F059
:102A100008079F619F6927F004079F61CAE000BF14
:102A2000036843F200461D6A1A6A25F0200522F069
:102A300010021A621A46D3F804C052F8188F8F6831
:102A4000D1F800E0C4F20106B34245EA071505D00B
:102A500042F60047C4F20107BB4207D1CF686FF0CE
:102A6000400425F0C00504EA07142543B34205D00D
:102A700042F60044C4F20104A34206D1D1E905465E
:102A80002CF44067264347EA860C28F4E64444EADF
:102A90000E27C3F804C09F614F6809699F631D62D8
:102AA0009F6947F400679F619F6927F480679F6172
:102AB0007FE000BF036843F200461D6A1A6A25F4EE
:102AC000007522F480721A621A46D3F804C052F8D4
:102AD0001CEF8F68D1F80080C4F20106B34245EACA
:102AE000072505D042F60047C4F20107BB4208D1D2
:102AF000CF6840F2FF443F0225F4406527EA040412
:102B00002543B34205D042F60044C4F20104A34277
:102B100006D1D1E905462CF44057264347EA061C66
:102B20002EF0730747EA0807C3F804C0DF614F6857
:102B30000969DF631D62DF6947F00807DF61DF694C
:102B400027F00407DF6135E0036843F20047D3F85C
:102B500020C01A6AC4F2010722F480521A621A468F
:102B60005C6852F81C5FD1F800E08E68BB4205D06B
:102B700042F60047C4F20107BB4204D14F6924F476
:102B8000804444EA87142CF4005747EA063725F4BA
:102B9000E64646EA0E265C60DE614E6809691E6400
:102BA0001F62DF6947F40067DF61DF6927F4806730
:102BB000DF6109021368194311600021BDE8F0418B
:102BC000002280F83C200846704700BF0121002207
:102BD00080F83C2008467047002804BF0120704759
:102BE00010B5044690F83D0028B9002084F83C0058
:102BF000204600F085F8022084F83D00206840F669
:102C0000FF330268C4F2000343F2004C9842C4F25E
:102C1000010C21DCB0F1804F2CD040F20041C4F215
:102C20000001884226D040F60001C4F2000188422B
:102C300020D0984224DCB0F1804F2FD040F20041E8
:102C4000C4F20001884229D040F60001C4F200011C
:102C5000884223D026E000BF40F60041C4F20001C4
:102C6000884207D0604505D042F60041C4F2010118
:102C70008842DED1A16822F070020A439842DADD70
:102C800040F60041C4F20001884207D0604505D0FB
:102C900042F60041C4F20101884203D1216922F4C5
:102CA00040720A43A36922F08001D4F804E0E2688C
:102CB000194360450160C262C0F828E005D042F6C1
:102CC0000041C4F20101884201D16169016301211F
:102CD0004161002084F8461084F83E1084F83F10CB
:102CE00084F8401084F8411084F8421084F84310AE
:102CF00084F8441084F8451084F83D1010BD00009D
:102D0000704700007047000041B1082910D0042925
:102D100014BF00F1410200F13F020BE090F83E20A9
:102D2000012A1CBF01207047022280F83E2013E0D8
:102D300000F140021278012A1CBF012070470222D4
:102D4000082907D0042914BF80F8412080F83F20CB
:102D500002E000BF80F84020006801F01F0101225E
:102D6000036A02FA01F123EA01020262026A1143D4
:102D700040F6FF32C4F20002904201620EDCB0F174
:102D8000804F25D040F20041C4F2000188421FD09C
:102D900040F60001C4F2000118E000BF40F6004117
:102DA000C4F20001884213D043F20042C4F201028F
:102DB00042F600419042C4F2010101D088420CD198
:102DC000436C904243F40043436401D0884204D1F1
:102DD000816801F00701062903D0016841F0010173
:102DE000016000207047000070470000704700003D
:102DF0007047000070470000B0B582B0044600681C
:102E00000168C368426901F02F05202D03F02005F9
:102E100006D12DB1204602B0BDE8B04001F05CBA49
:102E20005FEA017C1EBF02F0010E03F4907212EB08
:102E30000E0243D1226BCD0618D5012A16D113F00C
:102E4000100213D0002101910168019141680191A4
:102E50000199406940063BD4A08DE18DE28D002AA6
:102E600018BF884240F0F28102B0B0BD0A0640F1BE
:102E7000E78013F0800200F0E38094F841102129EC
:102E8000F2D1A168B1F5805F03D12169002900F07A
:102E90006382216A4A1C226209784160E18C01390F
:102EA0000A04E184E0D1C16821F08001C160C168F9
:102EB00041F04001C16002B0B0BD00BFCA0718BFF9
:102EC00013F4807240F0D0804A0700F1D380D8E03C
:102ED000E06B016849688AB2002AC5D0A38D9A4286
:102EE000C2D2E1858069202800F09E80206850E8E9
:102EF000030F216820F4807041E80302DAB12068F2
:102F000050E8030F216820F4807041E8030292B179
:102F1000206850E8030F216820F4807041E8030224
:102F20004AB1206850E8030F216820F4807041E81E
:102F30000302002ADAD1206850E8050F216820F04A
:102F4000010041E80502C2B3206850E8050F21687E
:102F500020F0010041E805027AB3206850E8050F2F
:102F6000216820F0010041E8050232B3206850E8F2
:102F7000050F216820F0010041E80502002ADAD19E
:102F80001BE000BF206850E8050F216820F04000DA
:102F900041E80502DAB1206850E8050F216820F009
:102FA000400041E8050292B1206850E8050F216811
:102FB00020F0400041E805024AB1206850E8050FC2
:102FC000216820F0400041E80502002ADAD12020E3
:102FD00084F8420000202063206850E8030F216835
:102FE00020F0100041E80302DAB1206850E8030F36
:102FF000216820F0100041E8030292B1206850E8F7
:10300000030F216820F0100041E803024AB1206854
:1030100050E8030F216820F0100041E80302002A65
:10302000DAD1E06BFDF710FC02206063A08DE18D2A
:10303000401A81B2204602B0BDE8B040FFF7D8BECA
:1030400049067FF511AF13F040013FF40DAFC168A1
:1030500021F04001C1602021204684F8411002B0D7
:10306000BDE8B04000F0ACBB626C42F001026264AB
:103070004A0706D5BEF1000F03D0626C42F002028F
:1030800062648A0706D5BEF1000F03D0626C42F07D
:1030900004026264BCF1000F06D55EEA050203D0AB
:1030A000626C42F008026264626C002A3FF4DCAE9B
:1030B000890604D51DB1204601F00EF9206840694B
:1030C000616C00F0400001F00801401800F0B6808B
:1030D000206850E8030F216820F4907041E8030253
:1030E000BAB3206850E8030F216820F4907041E8DB
:1030F000030272B3206850E8030F216820F4907037
:1031000041E803022AB3206850E8030F216820F445
:10311000907041E80302002ADAD11AE0206850E8F2
:10312000050F216820F0010041E80502DAB12068AE
:1031300050E8050F216820F0010041E8050292B136
:10314000206850E8050F216820F0010041E80502E1
:103150004AB1206850E8050F216820F0010041E8DD
:103160000502002ADAD1206B012824D1206850E81A
:10317000030F216820F0100041E80302DAB1206853
:1031800050E8030F216820F0100041E8030292B1DB
:10319000206850E8030F216820F0100041E8030286
:1031A0004AB1206850E8030F216820F0100041E880
:1031B0000302002ADAD1202084F842000020206394
:1031C00020684069400640F1C180206850E8050F42
:1031D000216820F0400041E80502DAB1206850E89B
:1031E000050F216820F0400041E8050292B12068F7
:1031F00050E8050F216820F0400041E805024AB17F
:10320000206850E8050F216820F0400041E80502E1
:10321000002ADAD1E06B002800F0988044F2CD213A
:10322000C0F600014163FDF733FB00283FF41CAEFC
:10323000E06B416B02B0BDE8B04008472046FFF7A5
:10324000D9FD0020606402B0B0BD00BF401A00BFCD
:10325000216851E8031F226821F4907142E80313AA
:10326000BBB3216851E8031F226821F4907142E842
:10327000031373B3216851E8031F226821F490718E
:1032800042E803132BB3216851E8031F226821F49D
:10329000907142E80313002BDAD11AE0216851E85B
:1032A000051F226821F0010142E80513DBB1216806
:1032B00051E8051F226821F0010142E8051393B18E
:1032C000216851E8051F226821F0010142E8051339
:1032D0004BB1216851E8051F226821F0010142E845
:1032E0000513002BDAD1202184F84210002121633C
:1032F000216851E8031F226821F0100142E80313FE
:10330000DBB1216851E8031F226821F0100142E877
:10331000031393B1216851E8031F226821F01001C3
:1033200042E803134BB1216851E8031F226821F0E2
:10333000100142E80313002BDAD1022281B22046A9
:10334000626302B0BDE8B040FFF752BD204602B054
:10335000BDE8B040FFF74EBD216A31F8022B6FF394
:103360005F224260216299E5002804BF0120704776
:1033700010B5044690F8410028B9002084F84000B8
:10338000204600F063F8242084F841002068D4E946
:103390000212C36823F40053C360036923F440534B
:1033A0001A430261D4E904231143C268194341F26C
:1033B0000C639A431143C1604169A26921F44071D1
:1033C000114343F60002C4F201029042416103D06E
:1033D000FEF74CFC02E000BFFEF75CFCD4E90023E2
:1033E000192148439900B0FBF1F048F21F5CC5F287
:1033F000EB1CA0FB0C314FF69C734909C0F6FF7320
:1034000001FB0300322303EB0010A0FB0C03F020B0
:1034100000EA531000EB0110C3F34311084490601D
:103420001069202120F490401061506920F02A009A
:103430005061D06840F40050D0600020606484F88F
:10344000411084F84210606310BD00002DE9F04186
:1034500086B040F600050446C4F20105006805F593
:10346000405100278842049702D006B0BDE8F081A1
:1034700041F21800C4F20200016802AE41F480413A
:103480000160016840F2440801F480410191019912
:103490000168C4F2020841F004010160006831468D
:1034A00000F00400019001984FF400700290022097
:1034B0000390032005902846FDF732FC4FF480600E
:1034C000CDE90207284631460497FDF729FC40F272
:1034D000980508F11400C2F200058026C5E900072E
:1034E0002846C5E90276C5E90477C5E90677FDF700
:1034F000B3FB002818BFFDF789F9E5636C6240F261
:10350000DC05C2F2000510200021C5E90080284634
:10351000C5E90216C5E90411C5E90611FDF79CFBD2
:10352000002818BFFDF772F9252000210022A563AD
:103530006C62FEF77DFA2520FEF768FA06B0BDE85A
:10354000F0810000704700002DE9F04381B004468F
:1035500090F84100202840F0B180884600294FF0C3
:10356000010000F0D6801646002A00F0D28000202C
:10357000606421201D4684F84100FDF7D1FCA6843B
:10358000E684A1680646B1F5805F03D12069002872
:1035900000F0988047464FF00008E18C2068002931
:1035A00000F0968005F101090BE000BF47B317F862
:1035B000011B4160E18C0139E184E18C002900F0BC
:1035C000878001680906F1D4B9F1000F0AD0EDB186
:1035D000FDF7A6FC801BA84218D8206801680906E0
:1035E000F6D5E3E701680906E0D4016809065CBF87
:1035F00001685FEA0161D9D401680906F2D5D5E70F
:1036000038F8021B00276FF35F21D2E7206850E8EB
:10361000030F216820F4D07041E80302BAB3206898
:1036200050E8030F216820F4D07041E8030272B320
:10363000206850E8030F216820F4D07041E80302AD
:103640002AB3206850E8030F216820F4D07041E8C5
:103650000302002ADAD11AE0206850E8050F216839
:1036600020F0010041E80502DAB1206850E8050FBA
:10367000216820F0010041E8050292B1206850E87D
:10368000050F216820F0010041E805024AB12068D9
:1036900050E8050F216820F0010041E80502002AEA
:1036A000DAD1202084F8410084F84200002084F818
:1036B0004000032001B0BDE8F08300BF022001B04C
:1036C000BDE8F0830027E18C206800297FF46AAF11
:1036D0000168490619D4FDB1691C0DD1016849067C
:1036E00013D4016849065CBF01685FEA41610CD4EC
:1036F00001684906F2D508E0FDF712FC801BA842DC
:103700000AD8206800684006F6D5202084F84100D9
:10371000002001B0BDE8F083206850E8030F216865
:1037200020F4D07041E80302002A3ED0206850E81F
:10373000030F216820F4D07041E80302AAB3206887
:1037400050E8030F216820F4D07041E8030262B30F
:10375000206850E8030F216820F4D07041E803028C
:10376000002AD9D121E000BF206850E8050F216868
:1037700020F0010041E80502002A3FF492AF2068E2
:1037800050E8050F216820F0010041E80502002AF9
:103790003FF487AF206850E8050F216820F0010052
:1037A00041E80502002A3FF47CAF206850E8050F8D
:1037B000216820F0010041E80502002AD4D170E719
:1037C00070470000FEE7000040F22010C2F2000047
:1037D000FDF7B0BB40F22010C2F20000FDF754BC70
:1037E00010B581B000210091406A40F20C01C2F294
:1037F000000190F83DC009684BF28952C908C1F236
:10380000F842A1FB0212110A2322514300910099B0
:1038100011B30099013900910168096889051FD524
:103820000099C9B1009901390091016809688905B9
:1038300016D5009981B10099013900910168096894
:1038400089050DD5009939B10099013900910168B8
:1038500009688905DBD403E0016C41F020010164B3
:10386000446B4FF0000E002C1CBF0021A162816B45
:1038700000291CBF00228A620268002C136823F40E
:1038800080631360A0F82AE018BFC4F834E0002970
:103890001CBF00234B63116821F00101116090F8F7
:1038A0003D1060290CD1202180F83D10002180F8C6
:1038B0003E10016401B0BDE81040FDF737BB00BF0A
:1038C0000CF02801282911D1116841F00101116083
:1038D000116841F48061116000210163282180F8A2
:1038E0003D1001B0BDE81040FDF7EEBE202180F88C
:1038F0003D10002180F83E1001B0BDE81040FDF7FA
:10390000E3BE000010B5044690F83D1090F83E006C
:10391000B0F1100218BF0122403818BF0120024246
:1039200008BF222934D001F0280028283AD10020ED
:103930002063282084F83D0020684168090542D5AD
:10394000416821F400614160606B90F82110012909
:1039500058D1A06B43F2E171C0F600014163FCF75E
:1039600097FF002861D020684169490606D50069A3
:10397000616A0870616A206801316162016821F042
:1039800001010160202084F83D00A06B4BE000BFE6
:103990002068026822F4006202604268120505D5C0
:1039A0000CE000BF20684268120507D4602905D0EA
:1039B000202184F83D10002184F83E10002121636D
:1039C00041680905BCD494F83D10602950D12021EC
:1039D00084F83D10002121644169490606D500693B
:1039E000616A0870616A206801316162016821F0D2
:1039F000010101602046FDF799FA206C000717D1FC
:103A00001BE000BF43F2E171C0F600014163FCF727
:103A10003FFF50B12168606B0A6822F001020A6022
:103A2000202184F83D10416B8847206C000704D0AA
:103A30002068416821F4E061416094F83D00216C08
:103A4000490758BF10BD282810D10020CFF6FF70BD
:103A5000E06200212020216384F83D00204684F8A4
:103A60003E10BDE81040FDF7E3BE00BF10BD00BF33
:103A70004169490605D50069616A0870606A0130CC
:103A800060622046FDF720FE206C0007D0D1D4E70D
:103A9000C16A428D042A07D10168426A4B6823F447
:103AA00080634B60096911E0428D032A16D10268D8
:103AB0000229536823F48063536005D0042903D09E
:103AC000116821F4806111601169426A1170416AC4
:103AD00001314162418D013941857047428D022A91
:103AE00012D101390F2919D8DFE801F00812181294
:103AF00018181818181818181818180801680A68DB
:103B000022F480620EE000BF0168426ACAE700BF8B
:103B100001680A6842F4806204E000BF01680A6834
:103B200042F400720A600969426A1170416A0268CF
:103B30004B1C4362438D013B438512694A70416AC5
:103B4000026801314162418D01394185516821F49A
:103B500040715160202180F83D1090F83E200021F6
:103B6000402A80F83E1003D10163FDF767BE00BF15
:103B700012210163FDF75EBE81B090F83D1022294D
:103B80000FD1418D04290FD30168426A0969117070
:103B9000416A01314162418D01394185418D0329DD
:103BA0005ED001B0704700BFC26A012958D8022A0E
:103BB00056D00021009140F20C01C2F200010968C8
:103BC0004BF28952C908C1F2F842A1FB0212110A54
:103BD00001EB8101009100990139009100990029C0
:103BE00046D001680A6892051AD5009901390091FA
:103BF0000099E9B301680A68920511D50099013965
:103C000000910099A1B301680A68920508D500994E
:103C100001390091009959B301680A689205DAD414
:103C20000A6822F480620A604A6822F4E0624A600C
:103C30000969426A1170416A01314162418D01395D
:103C40004185202180F83D1090F83E200021402A37
:103C500080F83E1028D1016301B0FDF7EFBD00BF31
:103C60000068416821F48061416001B0704700BF85
:103C7000016C41F0200101640168426A4B6823F441
:103C8000E0634B6009691170416A01314162418D05
:103C900001394185202180F83D10002180F83E1037
:103CA00001B0FDF711BD00BF1221016301B0FDF7A6
:103CB000C1BD0000C16A90F83D20212A18BF70479D
:103CC000428D4AB1416A026811F8013B13614162B9
:103CD000418D01394185704711F5803F18BF082992
:103CE00018D101684A6822F4E0624A600A6842F426
:103CF00000720A6000212022016380F83D2090F8C4
:103D00003E2080F83E10402A08BFFDF799BDFDF720
:103D100093BD00BF2029E4D001684A6822F4E06224
:103D20004A6011210163002180F83E10202180F8B3
:103D30003D10FDF781BD000090F83D1090F83EC0A9
:103D4000C26A038D002B08BF212919D0212905D073
:103D5000BCF1400F08BF222900D07047418D69B3E4
:103D600090F83E10402908BF00F040B8416A026850
:103D700011F8013B13614162418D01394185704762
:103D800012F5803F18BF082A1ED101684A6822F444
:103D9000E0624A600A6842F400720A600021202250
:103DA000016380F83D2090F83E2080F83E10402AC4
:103DB00008BFFDF745BDFDF73FBD00BF0068416886
:103DC00021F4806141607047202ADED001684A6892
:103DD00022F4E0624A6011210163002180F83E1064
:103DE000202180F83D10FDF727BD000090F83D1020
:103DF000026D5AB1026D012A14D10168826CD2B2EF
:103E00000A61016D01310165704700BFC26C816CB0
:103E1000012A15D10268C9B21161016D0231016533
:103E2000704700BF026D022A12D1222918D1016801
:103E30000A6842F480720A60016D013101657047C1
:103E40000268C1F307211161016D013101657047FD
:103E500000684169090644BF00210161704700BF45
:103E6000428D5AB1212909D1416A026811F8013BFA
:103E700013614162418D013941857047428D002AAD
:103E800008BF2129EAD101684A6822F4E0624A6049
:103E90000A6842F400720A6000212022016380F85F
:103EA0003D2080F83E10FDF7CBBC000080B582B00D
:103EB00041F21400C4F202000168002241F0010145
:103EC00001600068002100F00100019001980E20BF
:103ED000FDF7AEFD0E20FDF799FD0F200021002219
:103EE000FDF7A6FD0F20FDF791FD10200021002217
:103EF000FDF79EFD1020FDF789FD11200021002215
:103F0000FDF796FD112002B0BDE88040FDF77EBDB3
:103F10002DE9F04385B041F21800C4F202000168B7
:103F200040F6004941F0400101600168C4F2010916
:103F300001F0400101910199016809F5406541F0E6
:103F4000040101600168002201F00401019101995E
:103F500001680C2641F00801016000680C2100F0A6
:103F600008000190019828464FF00008FCF7D2FFA6
:103F70004846012100220127FCF7CCFF01A880E878
:103F8000C00101AE0224284631460494FCF7C8FE65
:103F900048463146CDE90177CDE90384FCF7C0FE00
:103FA00005B0BDE8F083000080B540F2201045F276
:103FB0000041C2F20000C4F2000141F68022002359
:103FC0004FF4804CC0F2060280E80E00C0E9033CCA
:103FD000C0E90533C0E90733FDF778FB002808BFC7
:103FE00080BDBDE88040FCF711BC000010B58CB06E
:103FF00040F2741042F600410024C2F20000C4F204
:104000000101C0E9001403214FF6FF72CDE903144A
:104010000121C0E90242CDE905140622CDE90914C7
:1040200003A9CDE90044C0E904448461CDE9072433
:104030000B92FEF785FA002818BFFCF7E7FB40F269
:104040007410C2F200006946CDE90044FEF750F852
:10405000002818BFFCF7DAFB0CB010BD80B586B0A5
:1040600040F2BC100021C2F200004FF0804241F645
:104070001F434FF0090C0591CDE90311CDE9001163
:10408000C0E90023C0E9021C01618161FEF77CF8F0
:10409000002818BFFCF7BAFB4FF48050029040F2A2
:1040A000BC10C2F2000002A9FEF77AF9002818BF7E
:1040B000FCF7ACFB40F2BC10C2F200006946FEF710
:1040C00017F8002818BFFCF7A1FB06B080BD000060
:1040D000B0B594B040F2004540F20420C4F20005AF
:1040E0000021C2F20000472240F2E7330E91CDE9F1
:1040F0000C110991CDE90711CDE90511CDE90311A5
:10410000CDE90111C0E90052C0E9021301618161EA
:10411000FEF73AF8002818BFFCF778FB4FF4805000
:104120000B9040F20420C2F200000BA9FEF738F910
:10413000002818BFFCF76AFB40F20420C2F200001E
:10414000FEF74AFD002818BFFCF760FB80200990AD
:1041500040F204200024C2F2000008A90894FDF7F0
:10416000C7FF002818BFFCF751FB6020CDE9010410
:1041700040F20420C2F2000001A900220394059439
:10418000FEF7F4FB002818BFFCF740FB40F20424C4
:10419000C2F2000401A920460422FEF7E7FB002832
:1041A00018BFFCF733FB20680021A842129101D010
:1041B00014B0B0BD41F21800C4F20200016841F031
:1041C00004010160006810A900F004000F900F982E
:1041D000C020109002201190139005F58230FCF75A
:1041E0009FFD14B0B0BD000080B540F24C2043F6F6
:1041F0000001C2F20000C4F2010100234FF00C0CD8
:104200004FF4E13280E80E00C0E90333C0E905C392
:10421000C361FFF7A9F8002808BF80BDBDE8804052
:10422000FCF7F4BAFEE70000FEE70000704700006C
:10423000704700002DE9F04385B041F21800C4F248
:104240000200016840F6004441F004010160016889
:10425000C4F2010401F004010191019901680122F5
:1042600041F0040101600068402100F00400019069
:104270000198204640254FF00109FCF74BFE2046EF
:10428000802101224FF08008FCF744FE019501AD2A
:104290001127032620462946CDE902790496FCF72A
:1042A0003FFD20462946CDE90187CDE90396FCF77D
:1042B00037FD05B0BDE8F083FDF740BB7047000057
:1042C00040F2BC10C2F20000FEF796BA406A00212C
:1042D000C185C184FEF78EBD81B090F842102229BD
:1042E00021D183680246B3F5805F09D152F8281FB7
:1042F00052F8183C002B63D003685B680AE000BFEB
:1043000052F8281F13B90369002BF5D003685B68C6
:1043100003F07F030B70116801311160C18D013909
:104320000A04C18502D001B0704700BF0168CA68A5
:1043300022F02002CA60CA6822F48072CA604A6908
:1043400022F001024A61202180F8421000214163DD
:10435000026B012A3CD10163016851E8031F026826
:1043600021F0100142E80313DBB1016851E8031F9B
:10437000026821F0100142E8031393B1016851E88B
:10438000031F026821F0100142E803134BB10168DA
:1043900051E8031F026821F0100142E80313002BCB
:1043A000DAD101680A68D20606D5002200920A68AE
:1043B0000092496800910099818D01B0FEF718BD07
:1043C000026852686FF35F2221F8022B8162A5E731
:1043D00001B0FFF7B7B8000040F24C20C2F2000075
:1043E000FEF70ABDFEE7000080B582B0019040F202
:1043F0004C20C2F2000001A901224FF6FF73FFF723
:10440000A3F8019802B080BD90B0FDF7A5FA002492
:104410000120CDE90B44CDE9094406900A904FF400
:10442000E0104FF4803102250F9006A8CDE9071463
:10443000CDE90D51FDF742FC20B1EFF3108072B6CB
:10444000FEE700BF0F20CDE901054FF48060CDE904
:10445000040401A802210394FDF726FB20B1EFF329
:10446000108072B6FEE700BFFFF752FDFFF71EFD9A
:10447000FFF7BAFEFFF7F2FDFFF796FDFFF7B6FD77
:10448000FFF726FEFFF7D6FEFCF7A6F940F2BC10B8
:10449000C2F20000FDF740FF40F27414C2F20004C3
:1044A00020460021FEF748F920460421FEF744F992
:1044B00040F20424C2F2000420460021FEF724FC4E
:1044C00020460421FEF720FC0BA000F099FC0CA470
:1044D000FCF7A2F90546FCF79FF9FCF7A5F9FBF7F5
:1044E000C6FE02460B462046294600F00FF80A2079
:1044F000FCF702FCECE700BF726561647900000024
:104500002568642C2025660A000000000FB4054BC6
:1045100010B503A9044A029800F0DAF810BC5DF85F
:1045200014FB0000E94300080000002002E008C876
:10453000121F08C1002AFAD170477047002001E01D
:1045400001C1121F002AFBD1704700002DE9FF5F57
:1045500082B00021DDE90430020DDDF840B00343F4
:1045600018D044F61050A2F2FF32424315141198AD
:1045700001281FD0A5EB0B00401C5FEA000A4FF09A
:1045800000064E4FDFF83891B046504615D5CAF1B7
:10459000000413E0119801244AA3012801D16FEA15
:1045A0000B010298119AC0E90031C0E9024206B03D
:1045B000BDE8F09FCBF10000DFE704460021404A50
:1045C000491842EB0450CDE9001012E0E00707D093
:1045D00032463B4640464946FBF7C6FD8046894683
:1045E00032463B4610461946FBF7BEFD06460F46CF
:1045F0006410002CEAD1DDE90401DDE90023BAF101
:10460000000F06DAFBF7B0FD42464B46FBF7ACFD68
:1046100005E0FBF7DDFF42464B46FBF7D9FF0446BA
:104620000E460022284BFCF75BF803D84FF0FF3012
:10463000014607E00022254B20463146FBF721FFCB
:10464000FCF735F8102409E0002C0ADB0A220023CD
:10465000FBF752FE039B30321A55641E50EA0102EA
:10466000F2D1641C039AC4F111031444119A012A73
:1046700003D0012208430DD10AE0084304D00020F2
:104680004FF0110B119072E7A3EB0B056D1E0DE0BF
:104690005B4504DD4FF0000205F1010504E003DA9B
:1046A0004FF00002A5F10105002AECD00298119903
:1046B000C0E90231C0E9004579E70000000014407C
:1046C0000000F03F300000000000F0430000E03F39
:1046D0002DE9FF4F95B09B468946064600250FE21F
:1046E000252877D100242746F84A0121059400E0C7
:1046F000044316F8013F203B01FA03F01042F7D1C2
:1047000030782A2811D06FF02F033078A0F13002D2
:10471000092A16D8059A44F0020402EB820203EB40
:1047200042021044761C0590EFE759F8042B0592DD
:10473000002A03DA504244F40054059044F0020485
:10474000761C30782E2816D116F8010F44F0040498
:104750002A280DD06FF02F023078A0F13003092BFA
:1047600009D807EB870302EB4303C718761CF3E76E
:1047700059F8047B761C30786C280FD006DC4C2866
:1047800017D068280DD06A2814D104E0742810D0FE
:104790007A280FD10DE044F400140AE044F48014A8
:1047A00001E044F440147278824202D104F580148E
:1047B000761C761C307866280BD013DC582877D00E
:1047C00009DC002875D04528F6D04628F4D04728C3
:1047D0001AD19DE118E0632835D0642879D0652886
:1047E00012D195E1702873D008DC6728F1D06928D0
:1047F0006FD06E280DD06F2806D1B5E073282CD06D
:10480000752875D0782874D05A46179990476D1C32
:1048100075E1C4F30250022809D003280DD0D9F85D
:10482000001004280DD00D6009F1040967E1D9F8E2
:104830000010EA17C1E90052F6E7D9F800100D8020
:10484000F2E70D70F0E719F8041B8DF80010002056
:104850008DF80100EA46012003E059F804AB4FF05F
:10486000FF3061074FF0000102D40DE008F10101B3
:104870008846B9420FDA8045F8DB1AF8081000299B
:10488000F4D108E008F1010188468142FADB1AF808
:1048900008100029F6D105985B46A0EB08072146D1
:1048A0003846179A00F094FA284400EB080507E010
:1048B0004DE029E10DE01AF8010B5A46179990478F
:1048C000B8F10108F7D25B4621463846179A13E142
:1048D00042E00A220092C4F302524FF0000A022A78
:1048E00008D059F804CB032A4FEAEC710AD00DE046
:1048F00029E02AE009F1070121F00702F2E802C1EC
:10490000914609E00FFA8CFC4FEAEC71042A03D1BE
:104910004FFA8CFC4FEAEC71002907DA0A460021B5
:10492000DCF1000C61EB02012D2202E0220504D52E
:104930002B228DF80420012203E0E20701D020227F
:10494000F7E7904659E00A2102E010220DE010211D
:104950004FF0000A00910BE010224FF0000A44F0E3
:1049600004040827009203E008224FF0000A009296
:10497000C4F30252022A05D059F804CB0021032ABD
:1049800008D009E009F1070121F00702F2E802C1AD
:10499000914605E01FFA8CFC042A01D10CF0FF0CB3
:1049A0004FF00008220728D5702806D0009B83F01E
:1049B000100353EA0A0305D00EE040228DF80420CC
:1049C000012208E05CEA010206D030228DF80420C2
:1049D0008DF8050002229046009B83F0080353EAFD
:1049E0000A030AD15CEA010201D1620705D530222F
:1049F0008DF804204FF001087F1E582804D034A001
:104A000003900EA802900DE036A0F9E753466046E9
:104A1000009AFBF771FC84460398825C0298401E62
:104A2000029002705CEA0100F0D1029806A9081A0F
:104A300000F1200A600702D524F4803400E0012749
:104A4000574502DDA7EB0A0000E0002000EB0A0159
:104A5000009005984144401A0590E00306D45B4657
:104A60002146179A059800F0B3F90544002706E09F
:104A700001A85A46C05D179990476D1C7F1C474599
:104A8000F6DBE0030CD55B462146179A059800F04B
:104A90009FF9054404E030205A46179990476D1C51
:104AA0000099481E00900029F5DC08E00298029960
:104AB0005A460078491C0291179990476D1CBAF12B
:104AC0000001AAF1010AF1DC65E1000009280100FA
:104AD0003031323334353637383961626364656674
:104AE0000000000030313233343536373839414236
:104AF000434445460000000000F058F90544761C88
:104B0000307800287FF4ECAD19B02846BDE8F08F6E
:104B1000620700D4062709F1070222F0070CFCE81F
:104B20000223E14603F000485FEA080C02D00FF2CE
:104B3000702C0DE05FEA045C02D50FF2682C07E0F0
:104B40005FEAC47C02D00FF2602C01E0AFF2700C7F
:104B50004FF0FF3823F00043CDF850C065280CD04B
:104B600006DC452809D046281DD047283DD13DE028
:104B7000662818D067287ED138E00021112F01DB8C
:104B8000112000E0781CCDE9000106A90EA8FFF76E
:104B9000DDFCDDE90F010E9A03910021009207F17F
:104BA000010A04914DE04FF000400097CDE901105B
:104BB00006A90EA8FFF7CAFCDDE90F0203920E9BBF
:104BC00011990022DDF80CA00093049211B9791C10
:104BD00000EB010AB7EB0A0004D4C0F1FF3007F183
:104BE000010A0490AAEB0700019044E0012F00DACB
:104BF00001270021112F01DD112000E03846CDE909
:104C0000000106A90EA8FFF7A1FCDDE90F010E9A2D
:104C10000391002104910092BA4621070CD4039914
:104C2000514500DA8A46BAF1010F05DD009AAAF172
:104C30000101515C302908D0B84202DA10F1040FAA
:104C400006DA0121CDE9011015E0AAF10101E9E739
:104C5000002805DC049901440491AAEB000102E05C
:104C6000411C514500DD8A460499401A401C0190C0
:104C70004FF000400290200704D40198504501DB1A
:104C8000CDF8048000208DF84F0002980DF14F07F9
:104C9000B0F1004F25D02B200E9002984FF0020863
:104CA00000280CDA404202902D200E9007E00A21E5
:104CB0000298FBF70BFB3031029007F8011DB8F1A9
:104CC0000001A8F10108F2DC02980028EFD1791E5A
:104CD0000E980870307800F0200040F0450007F88A
:104CE000020D12A8C01B00F107081498007800B14B
:104CF000012000EB0A01019801EBE07105984144A5
:104D0000401A401E0590E00306D45B462146179AE0
:104D1000059800F05DF805441498007818B15A46DB
:104D2000179990476D1CE00324D55B462146179ADE
:104D3000059800F04DF805441CE00498002807DBB6
:104D4000DDE90301884203DD0098405C179901E02A
:104D5000179930205A469047049805F10105401CE8
:104D600004900198401E019004D12E205A461799B4
:104D700090476D1CBAF10001AAF1010ADDDC05E0E3
:104D800017F8010B5A46179990476D1CB8F10001AE
:104D9000A8F10108F4DC5B462146179A0598ABE6BA
:104DA0002D0000002B000000200000002DE9F04144
:104DB000044600251E461746880404D405E03946FB
:104DC0002020B0476D1C641EF9D52846BDE8F0814F
:104DD0002DE9F041044600251E469046C80301D542
:104DE000302700E02027880404D505E041463846F6
:104DF000B0476D1C641EF9D52846BDE8F08100005F
:104E000010B5044601E0FFF7EFFA14F8010B04496E
:104E10000028F8D1BDE810400A20FFF7E5BA0000ED
:104E20000000002000000000000000000102030458
:104E30000607080900000000010203040102020342
:104E40000405060708090A0B0C0D0E0F10100000D0
:104E5000704E000800000020100000002C450008E3
:104E6000804E000810000020880600003C45000825
:104E70000000000001000000100000000024F40009
:0400000508000131BD
:00000001FF
